{
  "address": "0xCf7Ed3AccA5a467e9e704C703E8D87F634fB0Fc9",
  "abi": [
    {
      "inputs": [
        {
          "internalType": "address",
          "name": "vrfCoordinatorV2",
          "type": "address"
        },
        {
          "internalType": "uint64",
          "name": "subscriptionId",
          "type": "uint64"
        },
        {
          "internalType": "bytes32",
          "name": "keyHash",
          "type": "bytes32"
        },
        {
          "internalType": "uint256",
          "name": "interval",
          "type": "uint256"
        },
        {
          "internalType": "uint256",
          "name": "enteranceFee",
          "type": "uint256"
        },
        {
          "internalType": "uint32",
          "name": "callbackGasLimit",
          "type": "uint32"
        }
      ],
      "stateMutability": "nonpayable",
      "type": "constructor"
    },
    {
      "inputs": [
        {
          "internalType": "address",
          "name": "have",
          "type": "address"
        },
        {
          "internalType": "address",
          "name": "want",
          "type": "address"
        }
      ],
      "name": "OnlyCoordinatorCanFulfill",
      "type": "error"
    },
    {
      "inputs": [],
      "name": "Raffle__RaffleNotOpen",
      "type": "error"
    },
    {
      "inputs": [],
      "name": "Raffle__SendMoreToEnterRaffle",
      "type": "error"
    },
    {
      "inputs": [],
      "name": "Raffle__TransferFailed",
      "type": "error"
    },
    {
      "inputs": [
        {
          "internalType": "uint256",
          "name": "balance",
          "type": "uint256"
        },
        {
          "internalType": "uint256",
          "name": "playersLength",
          "type": "uint256"
        },
        {
          "internalType": "uint256",
          "name": "raffleState",
          "type": "uint256"
        }
      ],
      "name": "Raffle__UpkeepNotNeeded",
      "type": "error"
    },
    {
      "anonymous": false,
      "inputs": [
        {
          "indexed": true,
          "internalType": "address",
          "name": "player",
          "type": "address"
        }
      ],
      "name": "RaffleEnter",
      "type": "event"
    },
    {
      "anonymous": false,
      "inputs": [
        {
          "indexed": true,
          "internalType": "uint256",
          "name": "requestId",
          "type": "uint256"
        }
      ],
      "name": "RequestedRaffleWinner",
      "type": "event"
    },
    {
      "anonymous": false,
      "inputs": [
        {
          "indexed": true,
          "internalType": "address",
          "name": "winner",
          "type": "address"
        }
      ],
      "name": "WinnerPicked",
      "type": "event"
    },
    {
      "inputs": [
        {
          "internalType": "bytes",
          "name": "",
          "type": "bytes"
        }
      ],
      "name": "checkUpkeep",
      "outputs": [
        {
          "internalType": "bool",
          "name": "upkeepNeeded",
          "type": "bool"
        },
        {
          "internalType": "bytes",
          "name": "",
          "type": "bytes"
        }
      ],
      "stateMutability": "nonpayable",
      "type": "function"
    },
    {
      "inputs": [],
      "name": "enterRaffle",
      "outputs": [],
      "stateMutability": "payable",
      "type": "function"
    },
    {
      "inputs": [],
      "name": "getEntranceFee",
      "outputs": [
        {
          "internalType": "uint256",
          "name": "",
          "type": "uint256"
        }
      ],
      "stateMutability": "view",
      "type": "function"
    },
    {
      "inputs": [],
      "name": "getInterval",
      "outputs": [
        {
          "internalType": "uint256",
          "name": "",
          "type": "uint256"
        }
      ],
      "stateMutability": "view",
      "type": "function"
    },
    {
      "inputs": [],
      "name": "getLatestTimeStamp",
      "outputs": [
        {
          "internalType": "uint256",
          "name": "",
          "type": "uint256"
        }
      ],
      "stateMutability": "view",
      "type": "function"
    },
    {
      "inputs": [],
      "name": "getNumOfPlayers",
      "outputs": [
        {
          "internalType": "uint256",
          "name": "",
          "type": "uint256"
        }
      ],
      "stateMutability": "view",
      "type": "function"
    },
    {
      "inputs": [],
      "name": "getNumWords",
      "outputs": [
        {
          "internalType": "uint32",
          "name": "",
          "type": "uint32"
        }
      ],
      "stateMutability": "pure",
      "type": "function"
    },
    {
      "inputs": [
        {
          "internalType": "uint256",
          "name": "index",
          "type": "uint256"
        }
      ],
      "name": "getPlayer",
      "outputs": [
        {
          "internalType": "address",
          "name": "",
          "type": "address"
        }
      ],
      "stateMutability": "view",
      "type": "function"
    },
    {
      "inputs": [],
      "name": "getRaffleState",
      "outputs": [
        {
          "internalType": "enum Raffle.RaffleState",
          "name": "",
          "type": "uint8"
        }
      ],
      "stateMutability": "view",
      "type": "function"
    },
    {
      "inputs": [],
      "name": "getRecentWinner",
      "outputs": [
        {
          "internalType": "address",
          "name": "",
          "type": "address"
        }
      ],
      "stateMutability": "view",
      "type": "function"
    },
    {
      "inputs": [],
      "name": "getRequestConfirmations",
      "outputs": [
        {
          "internalType": "uint16",
          "name": "",
          "type": "uint16"
        }
      ],
      "stateMutability": "pure",
      "type": "function"
    },
    {
      "inputs": [],
      "name": "getenteranceFee",
      "outputs": [
        {
          "internalType": "uint256",
          "name": "",
          "type": "uint256"
        }
      ],
      "stateMutability": "view",
      "type": "function"
    },
    {
      "inputs": [
        {
          "internalType": "bytes",
          "name": "",
          "type": "bytes"
        }
      ],
      "name": "performUpkeep",
      "outputs": [],
      "stateMutability": "nonpayable",
      "type": "function"
    },
    {
      "inputs": [
        {
          "internalType": "uint256",
          "name": "requestId",
          "type": "uint256"
        },
        {
          "internalType": "uint256[]",
          "name": "randomWords",
          "type": "uint256[]"
        }
      ],
      "name": "rawFulfillRandomWords",
      "outputs": [],
      "stateMutability": "nonpayable",
      "type": "function"
    }
  ],
  "transactionHash": "0xca2540c2d36adc9224b77248b0067fdb2d913de774962d2c593feecaa9d29c62",
  "args": [
    "0x5FbDB2315678afecb367f032d93F642f64180aa3",
    "1",
    "0x79d3d8832d904592c0bf9818b621522c988bb8b0c05cdc3b15aea1b6e8db0c15",
    "30",
    "10000000000000000",
    "500000"
  ],
  "numDeployments": 1,
  "solcInputHash": "57cb19ca409c2186fd7effc5ce717ca0",
  "bytecode": "0x6101606040523480156200001257600080fd5b50604051620018a3380380620018a3833981810160405281019062000038919062000294565b858073ffffffffffffffffffffffffffffffffffffffff1660808173ffffffffffffffffffffffffffffffffffffffff1681525050508160a081815250508573ffffffffffffffffffffffffffffffffffffffff1660c08173ffffffffffffffffffffffffffffffffffffffff16815250508360e081815250508467ffffffffffffffff166101008167ffffffffffffffff16815250508063ffffffff166101208163ffffffff16815250506000600160146101000a81548160ff021916908360018111156200010d576200010c62000330565b5b0217905550426002819055508261014081815250505050505050506200035f565b600080fd5b600073ffffffffffffffffffffffffffffffffffffffff82169050919050565b6000620001608262000133565b9050919050565b620001728162000153565b81146200017e57600080fd5b50565b600081519050620001928162000167565b92915050565b600067ffffffffffffffff82169050919050565b620001b78162000198565b8114620001c357600080fd5b50565b600081519050620001d781620001ac565b92915050565b6000819050919050565b620001f281620001dd565b8114620001fe57600080fd5b50565b6000815190506200021281620001e7565b92915050565b6000819050919050565b6200022d8162000218565b81146200023957600080fd5b50565b6000815190506200024d8162000222565b92915050565b600063ffffffff82169050919050565b6200026e8162000253565b81146200027a57600080fd5b50565b6000815190506200028e8162000263565b92915050565b60008060008060008060c08789031215620002b457620002b36200012e565b5b6000620002c489828a0162000181565b9650506020620002d789828a01620001c6565b9550506040620002ea89828a0162000201565b9450506060620002fd89828a016200023c565b93505060806200031089828a016200023c565b92505060a06200032389828a016200027d565b9150509295509295509295565b7f4e487b7100000000000000000000000000000000000000000000000000000000600052602160045260246000fd5b60805160a05160c05160e0516101005161012051610140516114cd620003d66000396000818161082e015261089d015260006106eb015260006106c8015260006106a70152600061066b0152600081816103400152818161043d01526108c501526000818161037d01526103d101526114cd6000f3fe6080604052600436106100dd5760003560e01c806353a2c19a1161007f5780636e04ff0d116100595780636e04ff0d1461026b57806391ad27b4146102a9578063d91fe6eb146102d4578063e55ae4e8146102ff576100dd565b806353a2c19a146101ea578063565429de146102155780635f1b0fd814610240576100dd565b80632cfcc539116100bb5780632cfcc53914610161578063320229eb1461016b5780634585e33b14610196578063473f1ddc146101bf576100dd565b806309bc33a7146100e2578063115cbaf51461010d5780631fe543e314610138575b600080fd5b3480156100ee57600080fd5b506100f761033c565b6040516101049190610c21565b60405180910390f35b34801561011957600080fd5b50610122610364565b60405161012f9190610cb3565b60405180910390f35b34801561014457600080fd5b5061015f600480360381019061015a9190610e67565b61037b565b005b61016961043b565b005b34801561017757600080fd5b506101806105aa565b60405161018d9190610c21565b60405180910390f35b3480156101a257600080fd5b506101bd60048036038101906101b89190610f1e565b6105b4565b005b3480156101cb57600080fd5b506101d46107a4565b6040516101e19190610fac565b60405180910390f35b3480156101f657600080fd5b506101ff6107ce565b60405161020c9190610fe6565b60405180910390f35b34801561022157600080fd5b5061022a6107d7565b6040516102379190610c21565b60405180910390f35b34801561024c57600080fd5b506102556107e3565b604051610262919061101e565b60405180910390f35b34801561027757600080fd5b50610292600480360381019061028d91906110ee565b6107ec565b6040516102a09291906111d1565b60405180910390f35b3480156102b557600080fd5b506102be610899565b6040516102cb9190610c21565b60405180910390f35b3480156102e057600080fd5b506102e96108c1565b6040516102f69190610c21565b60405180910390f35b34801561030b57600080fd5b5061032660048036038101906103219190611201565b6108e9565b6040516103339190610fac565b60405180910390f35b60007f0000000000000000000000000000000000000000000000000000000000000000905090565b6000600160149054906101000a900460ff16905090565b7f000000000000000000000000000000000000000000000000000000000000000073ffffffffffffffffffffffffffffffffffffffff163373ffffffffffffffffffffffffffffffffffffffff161461042d57337f00000000000000000000000000000000000000000000000000000000000000006040517f1cf993f400000000000000000000000000000000000000000000000000000000815260040161042492919061122e565b60405180910390fd5b6104378282610930565b5050565b7f0000000000000000000000000000000000000000000000000000000000000000341015610495576040517f3038c00a00000000000000000000000000000000000000000000000000000000815260040160405180910390fd5b600060018111156104a9576104a8610c3c565b5b600160149054906101000a900460ff1660018111156104cb576104ca610c3c565b5b14610502576040517fd24a271400000000000000000000000000000000000000000000000000000000815260040160405180910390fd5b6000339080600181540180825580915050600190039060005260206000200160009091909190916101000a81548173ffffffffffffffffffffffffffffffffffffffff021916908373ffffffffffffffffffffffffffffffffffffffff1602179055503373ffffffffffffffffffffffffffffffffffffffff167f0805e1d667bddb8a95f0f09880cf94f403fb596ce79928d9f29b74203ba284d460405160405180910390a2565b6000600254905090565b60006105ce604051806020016040528060008152506107ec565b5090508061063d5747600080549050600160149054906101000a900460ff1660018111156105ff576105fe610c3c565b5b6040517f584327aa00000000000000000000000000000000000000000000000000000000815260040161063493929190611257565b60405180910390fd5b60018060146101000a81548160ff0219169083600181111561066257610661610c3c565b5b021790555060007f000000000000000000000000000000000000000000000000000000000000000073ffffffffffffffffffffffffffffffffffffffff16635d3b1d307f00000000000000000000000000000000000000000000000000000000000000007f000000000000000000000000000000000000000000000000000000000000000060037f000000000000000000000000000000000000000000000000000000000000000060016040518663ffffffff1660e01b815260040161072c9594939291906112ca565b6020604051808303816000875af115801561074b573d6000803e3d6000fd5b505050506040513d601f19601f8201168201806040525081019061076f9190611332565b9050807fcd6e45c8998311cab7e9d4385596cac867e20a0587194b954fa3a731c93ce78b60405160405180910390a250505050565b6000600160009054906101000a900473ffffffffffffffffffffffffffffffffffffffff16905090565b60006001905090565b60008080549050905090565b60006003905090565b60006060600080600181111561080557610804610c3c565b5b600160149054906101000a900460ff16600181111561082757610826610c3c565b5b14905060007f00000000000000000000000000000000000000000000000000000000000000006002544261085b919061138e565b101590506000806000805490501190506000804711905083801561087c5750825b80156108855750815b801561088e5750805b955050505050915091565b60007f0000000000000000000000000000000000000000000000000000000000000000905090565b60007f0000000000000000000000000000000000000000000000000000000000000000905090565b60008082815481106108fe576108fd6113c2565b5b9060005260206000200160009054906101000a900473ffffffffffffffffffffffffffffffffffffffff169050919050565b600080805490508260008151811061094b5761094a6113c2565b5b602002602001015161095d9190611420565b90506000808281548110610974576109736113c2565b5b9060005260206000200160009054906101000a900473ffffffffffffffffffffffffffffffffffffffff16905080600160006101000a81548173ffffffffffffffffffffffffffffffffffffffff021916908373ffffffffffffffffffffffffffffffffffffffff1602179055506000600160146101000a81548160ff02191690836001811115610a0857610a07610c3c565b5b0217905550600067ffffffffffffffff811115610a2857610a27610d24565b5b604051908082528060200260200182016040528015610a565781602001602082028036833780820191505090505b5060009080519060200190610a6c929190610b61565b504260028190555060008173ffffffffffffffffffffffffffffffffffffffff1647604051610a9a90611482565b60006040518083038185875af1925050503d8060008114610ad7576040519150601f19603f3d011682016040523d82523d6000602084013e610adc565b606091505b5050905080610b17576040517fa1d04b3900000000000000000000000000000000000000000000000000000000815260040160405180910390fd5b8173ffffffffffffffffffffffffffffffffffffffff167f5b690ec4a06fe979403046eaeea5b3ce38524683c3001f662c8b5a829632f7df60405160405180910390a25050505050565b828054828255906000526020600020908101928215610bda579160200282015b82811115610bd95782518260006101000a81548173ffffffffffffffffffffffffffffffffffffffff021916908373ffffffffffffffffffffffffffffffffffffffff16021790555091602001919060010190610b81565b5b509050610be79190610beb565b5090565b5b80821115610c04576000816000905550600101610bec565b5090565b6000819050919050565b610c1b81610c08565b82525050565b6000602082019050610c366000830184610c12565b92915050565b7f4e487b7100000000000000000000000000000000000000000000000000000000600052602160045260246000fd5b60028110610c7c57610c7b610c3c565b5b50565b6000819050610c8d82610c6b565b919050565b6000610c9d82610c7f565b9050919050565b610cad81610c92565b82525050565b6000602082019050610cc86000830184610ca4565b92915050565b6000604051905090565b600080fd5b600080fd5b610ceb81610c08565b8114610cf657600080fd5b50565b600081359050610d0881610ce2565b92915050565b600080fd5b6000601f19601f8301169050919050565b7f4e487b7100000000000000000000000000000000000000000000000000000000600052604160045260246000fd5b610d5c82610d13565b810181811067ffffffffffffffff82111715610d7b57610d7a610d24565b5b80604052505050565b6000610d8e610cce565b9050610d9a8282610d53565b919050565b600067ffffffffffffffff821115610dba57610db9610d24565b5b602082029050602081019050919050565b600080fd5b6000610de3610dde84610d9f565b610d84565b90508083825260208201905060208402830185811115610e0657610e05610dcb565b5b835b81811015610e2f5780610e1b8882610cf9565b845260208401935050602081019050610e08565b5050509392505050565b600082601f830112610e4e57610e4d610d0e565b5b8135610e5e848260208601610dd0565b91505092915050565b60008060408385031215610e7e57610e7d610cd8565b5b6000610e8c85828601610cf9565b925050602083013567ffffffffffffffff811115610ead57610eac610cdd565b5b610eb985828601610e39565b9150509250929050565b600080fd5b60008083601f840112610ede57610edd610d0e565b5b8235905067ffffffffffffffff811115610efb57610efa610ec3565b5b602083019150836001820283011115610f1757610f16610dcb565b5b9250929050565b60008060208385031215610f3557610f34610cd8565b5b600083013567ffffffffffffffff811115610f5357610f52610cdd565b5b610f5f85828601610ec8565b92509250509250929050565b600073ffffffffffffffffffffffffffffffffffffffff82169050919050565b6000610f9682610f6b565b9050919050565b610fa681610f8b565b82525050565b6000602082019050610fc16000830184610f9d565b92915050565b600063ffffffff82169050919050565b610fe081610fc7565b82525050565b6000602082019050610ffb6000830184610fd7565b92915050565b600061ffff82169050919050565b61101881611001565b82525050565b6000602082019050611033600083018461100f565b92915050565b600080fd5b600067ffffffffffffffff82111561105957611058610d24565b5b61106282610d13565b9050602081019050919050565b82818337600083830152505050565b600061109161108c8461103e565b610d84565b9050828152602081018484840111156110ad576110ac611039565b5b6110b884828561106f565b509392505050565b600082601f8301126110d5576110d4610d0e565b5b81356110e584826020860161107e565b91505092915050565b60006020828403121561110457611103610cd8565b5b600082013567ffffffffffffffff81111561112257611121610cdd565b5b61112e848285016110c0565b91505092915050565b60008115159050919050565b61114c81611137565b82525050565b600081519050919050565b600082825260208201905092915050565b60005b8381101561118c578082015181840152602081019050611171565b60008484015250505050565b60006111a382611152565b6111ad818561115d565b93506111bd81856020860161116e565b6111c681610d13565b840191505092915050565b60006040820190506111e66000830185611143565b81810360208301526111f88184611198565b90509392505050565b60006020828403121561121757611216610cd8565b5b600061122584828501610cf9565b91505092915050565b60006040820190506112436000830185610f9d565b6112506020830184610f9d565b9392505050565b600060608201905061126c6000830186610c12565b6112796020830185610c12565b6112866040830184610c12565b949350505050565b6000819050919050565b6112a18161128e565b82525050565b600067ffffffffffffffff82169050919050565b6112c4816112a7565b82525050565b600060a0820190506112df6000830188611298565b6112ec60208301876112bb565b6112f9604083018661100f565b6113066060830185610fd7565b6113136080830184610fd7565b9695505050505050565b60008151905061132c81610ce2565b92915050565b60006020828403121561134857611347610cd8565b5b60006113568482850161131d565b91505092915050565b7f4e487b7100000000000000000000000000000000000000000000000000000000600052601160045260246000fd5b600061139982610c08565b91506113a483610c08565b92508282039050818111156113bc576113bb61135f565b5b92915050565b7f4e487b7100000000000000000000000000000000000000000000000000000000600052603260045260246000fd5b7f4e487b7100000000000000000000000000000000000000000000000000000000600052601260045260246000fd5b600061142b82610c08565b915061143683610c08565b925082611446576114456113f1565b5b828206905092915050565b600081905092915050565b50565b600061146c600083611451565b91506114778261145c565b600082019050919050565b600061148d8261145f565b915081905091905056fea26469706673582212207d23558f0a47a0f9b4ebc12190a1b4d5b8d7dc726a7d6692233d742a4ab8e57464736f6c63430008120033",
  "devdoc": {
    "author": "Oleksii Pidnebesnyi",
    "details": "A raffle contract that uses Chainlink VRF to pick a winner",
    "kind": "dev",
    "methods": {},
    "title": "Raffle",
    "version": 1
  },
  "userdoc": {
    "kind": "user",
    "methods": {},
    "version": 1
  },
  "storageLayout": {
    "storage": [
      {
        "astId": 208,
        "contract": "contracts/Raffle.sol:Raffle",
        "label": "s_players",
        "offset": 0,
        "slot": "0",
        "type": "t_array(t_address_payable)dyn_storage"
      },
      {
        "astId": 225,
        "contract": "contracts/Raffle.sol:Raffle",
        "label": "s_recentWinner",
        "offset": 0,
        "slot": "1",
        "type": "t_address"
      },
      {
        "astId": 228,
        "contract": "contracts/Raffle.sol:Raffle",
        "label": "s_raffleState",
        "offset": 20,
        "slot": "1",
        "type": "t_enum(RaffleState)203"
      },
      {
        "astId": 230,
        "contract": "contracts/Raffle.sol:Raffle",
        "label": "s_lastTimeStamp",
        "offset": 0,
        "slot": "2",
        "type": "t_uint256"
      }
    ],
    "types": {
      "t_address": {
        "encoding": "inplace",
        "label": "address",
        "numberOfBytes": "20"
      },
      "t_address_payable": {
        "encoding": "inplace",
        "label": "address payable",
        "numberOfBytes": "20"
      },
      "t_array(t_address_payable)dyn_storage": {
        "base": "t_address_payable",
        "encoding": "dynamic_array",
        "label": "address payable[]",
        "numberOfBytes": "32"
      },
      "t_enum(RaffleState)203": {
        "encoding": "inplace",
        "label": "enum Raffle.RaffleState",
        "numberOfBytes": "1"
      },
      "t_uint256": {
        "encoding": "inplace",
        "label": "uint256",
        "numberOfBytes": "32"
      }
    }
  }
}