{"contracts/Raffle.sol":{"Raffle":{"abi":[{"inputs":[{"internalType":"address","name":"vrfCoordinatorV2","type":"address"},{"internalType":"uint64","name":"subscriptionId","type":"uint64"},{"internalType":"bytes32","name":"keyHash","type":"bytes32"},{"internalType":"uint256","name":"interval","type":"uint256"},{"internalType":"uint256","name":"enteranceFee","type":"uint256"},{"internalType":"uint32","name":"callbackGasLimit","type":"uint32"}],"stateMutability":"nonpayable","type":"constructor"},{"inputs":[{"internalType":"address","name":"have","type":"address"},{"internalType":"address","name":"want","type":"address"}],"name":"OnlyCoordinatorCanFulfill","type":"error"},{"inputs":[],"name":"Raffle__RaffleNotOpen","type":"error"},{"inputs":[],"name":"Raffle__SendMoreToEnterRaffle","type":"error"},{"inputs":[],"name":"Raffle__TransferFailed","type":"error"},{"inputs":[{"internalType":"uint256","name":"balance","type":"uint256"},{"internalType":"uint256","name":"playersLength","type":"uint256"},{"internalType":"uint256","name":"raffleState","type":"uint256"}],"name":"Raffle__UpkeepNotNeeded","type":"error"},{"anonymous":false,"inputs":[{"indexed":true,"internalType":"address","name":"player","type":"address"}],"name":"RaffleEnter","type":"event"},{"anonymous":false,"inputs":[{"indexed":true,"internalType":"uint256","name":"requestId","type":"uint256"}],"name":"RequestedRaffleWinner","type":"event"},{"anonymous":false,"inputs":[{"indexed":true,"internalType":"address","name":"winner","type":"address"}],"name":"WinnerPicked","type":"event"},{"inputs":[{"internalType":"bytes","name":"","type":"bytes"}],"name":"checkUpkeep","outputs":[{"internalType":"bool","name":"upkeepNeeded","type":"bool"},{"internalType":"bytes","name":"","type":"bytes"}],"stateMutability":"nonpayable","type":"function"},{"inputs":[],"name":"enterRaffle","outputs":[],"stateMutability":"payable","type":"function"},{"inputs":[],"name":"getEntranceFee","outputs":[{"internalType":"uint256","name":"","type":"uint256"}],"stateMutability":"view","type":"function"},{"inputs":[],"name":"getInterval","outputs":[{"internalType":"uint256","name":"","type":"uint256"}],"stateMutability":"view","type":"function"},{"inputs":[],"name":"getLatestTimeStamp","outputs":[{"internalType":"uint256","name":"","type":"uint256"}],"stateMutability":"view","type":"function"},{"inputs":[],"name":"getNumOfPlayers","outputs":[{"internalType":"uint256","name":"","type":"uint256"}],"stateMutability":"view","type":"function"},{"inputs":[],"name":"getNumWords","outputs":[{"internalType":"uint32","name":"","type":"uint32"}],"stateMutability":"pure","type":"function"},{"inputs":[{"internalType":"uint256","name":"index","type":"uint256"}],"name":"getPlayer","outputs":[{"internalType":"address","name":"","type":"address"}],"stateMutability":"view","type":"function"},{"inputs":[],"name":"getRaffleState","outputs":[{"internalType":"enum Raffle.RaffleState","name":"","type":"uint8"}],"stateMutability":"view","type":"function"},{"inputs":[],"name":"getRecentWinner","outputs":[{"internalType":"address","name":"","type":"address"}],"stateMutability":"view","type":"function"},{"inputs":[],"name":"getRequestConfirmations","outputs":[{"internalType":"uint16","name":"","type":"uint16"}],"stateMutability":"pure","type":"function"},{"inputs":[],"name":"getenteranceFee","outputs":[{"internalType":"uint256","name":"","type":"uint256"}],"stateMutability":"view","type":"function"},{"inputs":[{"internalType":"bytes","name":"","type":"bytes"}],"name":"performUpkeep","outputs":[],"stateMutability":"nonpayable","type":"function"},{"inputs":[{"internalType":"uint256","name":"requestId","type":"uint256"},{"internalType":"uint256[]","name":"randomWords","type":"uint256[]"}],"name":"rawFulfillRandomWords","outputs":[],"stateMutability":"nonpayable","type":"function"}],"devdoc":{"author":"Oleksii Pidnebesnyi","details":"A raffle contract that uses Chainlink VRF to pick a winner","kind":"dev","methods":{},"title":"Raffle","version":1},"evm":{"bytecode":{"linkReferences":{},"object":"6101606040523480156200001257600080fd5b50604051620018a3380380620018a3833981810160405281019062000038919062000294565b858073ffffffffffffffffffffffffffffffffffffffff1660808173ffffffffffffffffffffffffffffffffffffffff1681525050508160a081815250508573ffffffffffffffffffffffffffffffffffffffff1660c08173ffffffffffffffffffffffffffffffffffffffff16815250508360e081815250508467ffffffffffffffff166101008167ffffffffffffffff16815250508063ffffffff166101208163ffffffff16815250506000600160146101000a81548160ff021916908360018111156200010d576200010c62000330565b5b0217905550426002819055508261014081815250505050505050506200035f565b600080fd5b600073ffffffffffffffffffffffffffffffffffffffff82169050919050565b6000620001608262000133565b9050919050565b620001728162000153565b81146200017e57600080fd5b50565b600081519050620001928162000167565b92915050565b600067ffffffffffffffff82169050919050565b620001b78162000198565b8114620001c357600080fd5b50565b600081519050620001d781620001ac565b92915050565b6000819050919050565b620001f281620001dd565b8114620001fe57600080fd5b50565b6000815190506200021281620001e7565b92915050565b6000819050919050565b6200022d8162000218565b81146200023957600080fd5b50565b6000815190506200024d8162000222565b92915050565b600063ffffffff82169050919050565b6200026e8162000253565b81146200027a57600080fd5b50565b6000815190506200028e8162000263565b92915050565b60008060008060008060c08789031215620002b457620002b36200012e565b5b6000620002c489828a0162000181565b9650506020620002d789828a01620001c6565b9550506040620002ea89828a0162000201565b9450506060620002fd89828a016200023c565b93505060806200031089828a016200023c565b92505060a06200032389828a016200027d565b9150509295509295509295565b7f4e487b7100000000000000000000000000000000000000000000000000000000600052602160045260246000fd5b60805160a05160c05160e0516101005161012051610140516114cd620003d66000396000818161082e015261089d015260006106eb015260006106c8015260006106a70152600061066b0152600081816103400152818161043d01526108c501526000818161037d01526103d101526114cd6000f3fe6080604052600436106100dd5760003560e01c806353a2c19a1161007f5780636e04ff0d116100595780636e04ff0d1461026b57806391ad27b4146102a9578063d91fe6eb146102d4578063e55ae4e8146102ff576100dd565b806353a2c19a146101ea578063565429de146102155780635f1b0fd814610240576100dd565b80632cfcc539116100bb5780632cfcc53914610161578063320229eb1461016b5780634585e33b14610196578063473f1ddc146101bf576100dd565b806309bc33a7146100e2578063115cbaf51461010d5780631fe543e314610138575b600080fd5b3480156100ee57600080fd5b506100f761033c565b6040516101049190610c21565b60405180910390f35b34801561011957600080fd5b50610122610364565b60405161012f9190610cb3565b60405180910390f35b34801561014457600080fd5b5061015f600480360381019061015a9190610e67565b61037b565b005b61016961043b565b005b34801561017757600080fd5b506101806105aa565b60405161018d9190610c21565b60405180910390f35b3480156101a257600080fd5b506101bd60048036038101906101b89190610f1e565b6105b4565b005b3480156101cb57600080fd5b506101d46107a4565b6040516101e19190610fac565b60405180910390f35b3480156101f657600080fd5b506101ff6107ce565b60405161020c9190610fe6565b60405180910390f35b34801561022157600080fd5b5061022a6107d7565b6040516102379190610c21565b60405180910390f35b34801561024c57600080fd5b506102556107e3565b604051610262919061101e565b60405180910390f35b34801561027757600080fd5b50610292600480360381019061028d91906110ee565b6107ec565b6040516102a09291906111d1565b60405180910390f35b3480156102b557600080fd5b506102be610899565b6040516102cb9190610c21565b60405180910390f35b3480156102e057600080fd5b506102e96108c1565b6040516102f69190610c21565b60405180910390f35b34801561030b57600080fd5b5061032660048036038101906103219190611201565b6108e9565b6040516103339190610fac565b60405180910390f35b60007f0000000000000000000000000000000000000000000000000000000000000000905090565b6000600160149054906101000a900460ff16905090565b7f000000000000000000000000000000000000000000000000000000000000000073ffffffffffffffffffffffffffffffffffffffff163373ffffffffffffffffffffffffffffffffffffffff161461042d57337f00000000000000000000000000000000000000000000000000000000000000006040517f1cf993f400000000000000000000000000000000000000000000000000000000815260040161042492919061122e565b60405180910390fd5b6104378282610930565b5050565b7f0000000000000000000000000000000000000000000000000000000000000000341015610495576040517f3038c00a00000000000000000000000000000000000000000000000000000000815260040160405180910390fd5b600060018111156104a9576104a8610c3c565b5b600160149054906101000a900460ff1660018111156104cb576104ca610c3c565b5b14610502576040517fd24a271400000000000000000000000000000000000000000000000000000000815260040160405180910390fd5b6000339080600181540180825580915050600190039060005260206000200160009091909190916101000a81548173ffffffffffffffffffffffffffffffffffffffff021916908373ffffffffffffffffffffffffffffffffffffffff1602179055503373ffffffffffffffffffffffffffffffffffffffff167f0805e1d667bddb8a95f0f09880cf94f403fb596ce79928d9f29b74203ba284d460405160405180910390a2565b6000600254905090565b60006105ce604051806020016040528060008152506107ec565b5090508061063d5747600080549050600160149054906101000a900460ff1660018111156105ff576105fe610c3c565b5b6040517f584327aa00000000000000000000000000000000000000000000000000000000815260040161063493929190611257565b60405180910390fd5b60018060146101000a81548160ff0219169083600181111561066257610661610c3c565b5b021790555060007f000000000000000000000000000000000000000000000000000000000000000073ffffffffffffffffffffffffffffffffffffffff16635d3b1d307f00000000000000000000000000000000000000000000000000000000000000007f000000000000000000000000000000000000000000000000000000000000000060037f000000000000000000000000000000000000000000000000000000000000000060016040518663ffffffff1660e01b815260040161072c9594939291906112ca565b6020604051808303816000875af115801561074b573d6000803e3d6000fd5b505050506040513d601f19601f8201168201806040525081019061076f9190611332565b9050807fcd6e45c8998311cab7e9d4385596cac867e20a0587194b954fa3a731c93ce78b60405160405180910390a250505050565b6000600160009054906101000a900473ffffffffffffffffffffffffffffffffffffffff16905090565b60006001905090565b60008080549050905090565b60006003905090565b60006060600080600181111561080557610804610c3c565b5b600160149054906101000a900460ff16600181111561082757610826610c3c565b5b14905060007f00000000000000000000000000000000000000000000000000000000000000006002544261085b919061138e565b101590506000806000805490501190506000804711905083801561087c5750825b80156108855750815b801561088e5750805b955050505050915091565b60007f0000000000000000000000000000000000000000000000000000000000000000905090565b60007f0000000000000000000000000000000000000000000000000000000000000000905090565b60008082815481106108fe576108fd6113c2565b5b9060005260206000200160009054906101000a900473ffffffffffffffffffffffffffffffffffffffff169050919050565b600080805490508260008151811061094b5761094a6113c2565b5b602002602001015161095d9190611420565b90506000808281548110610974576109736113c2565b5b9060005260206000200160009054906101000a900473ffffffffffffffffffffffffffffffffffffffff16905080600160006101000a81548173ffffffffffffffffffffffffffffffffffffffff021916908373ffffffffffffffffffffffffffffffffffffffff1602179055506000600160146101000a81548160ff02191690836001811115610a0857610a07610c3c565b5b0217905550600067ffffffffffffffff811115610a2857610a27610d24565b5b604051908082528060200260200182016040528015610a565781602001602082028036833780820191505090505b5060009080519060200190610a6c929190610b61565b504260028190555060008173ffffffffffffffffffffffffffffffffffffffff1647604051610a9a90611482565b60006040518083038185875af1925050503d8060008114610ad7576040519150601f19603f3d011682016040523d82523d6000602084013e610adc565b606091505b5050905080610b17576040517fa1d04b3900000000000000000000000000000000000000000000000000000000815260040160405180910390fd5b8173ffffffffffffffffffffffffffffffffffffffff167f5b690ec4a06fe979403046eaeea5b3ce38524683c3001f662c8b5a829632f7df60405160405180910390a25050505050565b828054828255906000526020600020908101928215610bda579160200282015b82811115610bd95782518260006101000a81548173ffffffffffffffffffffffffffffffffffffffff021916908373ffffffffffffffffffffffffffffffffffffffff16021790555091602001919060010190610b81565b5b509050610be79190610beb565b5090565b5b80821115610c04576000816000905550600101610bec565b5090565b6000819050919050565b610c1b81610c08565b82525050565b6000602082019050610c366000830184610c12565b92915050565b7f4e487b7100000000000000000000000000000000000000000000000000000000600052602160045260246000fd5b60028110610c7c57610c7b610c3c565b5b50565b6000819050610c8d82610c6b565b919050565b6000610c9d82610c7f565b9050919050565b610cad81610c92565b82525050565b6000602082019050610cc86000830184610ca4565b92915050565b6000604051905090565b600080fd5b600080fd5b610ceb81610c08565b8114610cf657600080fd5b50565b600081359050610d0881610ce2565b92915050565b600080fd5b6000601f19601f8301169050919050565b7f4e487b7100000000000000000000000000000000000000000000000000000000600052604160045260246000fd5b610d5c82610d13565b810181811067ffffffffffffffff82111715610d7b57610d7a610d24565b5b80604052505050565b6000610d8e610cce565b9050610d9a8282610d53565b919050565b600067ffffffffffffffff821115610dba57610db9610d24565b5b602082029050602081019050919050565b600080fd5b6000610de3610dde84610d9f565b610d84565b90508083825260208201905060208402830185811115610e0657610e05610dcb565b5b835b81811015610e2f5780610e1b8882610cf9565b845260208401935050602081019050610e08565b5050509392505050565b600082601f830112610e4e57610e4d610d0e565b5b8135610e5e848260208601610dd0565b91505092915050565b60008060408385031215610e7e57610e7d610cd8565b5b6000610e8c85828601610cf9565b925050602083013567ffffffffffffffff811115610ead57610eac610cdd565b5b610eb985828601610e39565b9150509250929050565b600080fd5b60008083601f840112610ede57610edd610d0e565b5b8235905067ffffffffffffffff811115610efb57610efa610ec3565b5b602083019150836001820283011115610f1757610f16610dcb565b5b9250929050565b60008060208385031215610f3557610f34610cd8565b5b600083013567ffffffffffffffff811115610f5357610f52610cdd565b5b610f5f85828601610ec8565b92509250509250929050565b600073ffffffffffffffffffffffffffffffffffffffff82169050919050565b6000610f9682610f6b565b9050919050565b610fa681610f8b565b82525050565b6000602082019050610fc16000830184610f9d565b92915050565b600063ffffffff82169050919050565b610fe081610fc7565b82525050565b6000602082019050610ffb6000830184610fd7565b92915050565b600061ffff82169050919050565b61101881611001565b82525050565b6000602082019050611033600083018461100f565b92915050565b600080fd5b600067ffffffffffffffff82111561105957611058610d24565b5b61106282610d13565b9050602081019050919050565b82818337600083830152505050565b600061109161108c8461103e565b610d84565b9050828152602081018484840111156110ad576110ac611039565b5b6110b884828561106f565b509392505050565b600082601f8301126110d5576110d4610d0e565b5b81356110e584826020860161107e565b91505092915050565b60006020828403121561110457611103610cd8565b5b600082013567ffffffffffffffff81111561112257611121610cdd565b5b61112e848285016110c0565b91505092915050565b60008115159050919050565b61114c81611137565b82525050565b600081519050919050565b600082825260208201905092915050565b60005b8381101561118c578082015181840152602081019050611171565b60008484015250505050565b60006111a382611152565b6111ad818561115d565b93506111bd81856020860161116e565b6111c681610d13565b840191505092915050565b60006040820190506111e66000830185611143565b81810360208301526111f88184611198565b90509392505050565b60006020828403121561121757611216610cd8565b5b600061122584828501610cf9565b91505092915050565b60006040820190506112436000830185610f9d565b6112506020830184610f9d565b9392505050565b600060608201905061126c6000830186610c12565b6112796020830185610c12565b6112866040830184610c12565b949350505050565b6000819050919050565b6112a18161128e565b82525050565b600067ffffffffffffffff82169050919050565b6112c4816112a7565b82525050565b600060a0820190506112df6000830188611298565b6112ec60208301876112bb565b6112f9604083018661100f565b6113066060830185610fd7565b6113136080830184610fd7565b9695505050505050565b60008151905061132c81610ce2565b92915050565b60006020828403121561134857611347610cd8565b5b60006113568482850161131d565b91505092915050565b7f4e487b7100000000000000000000000000000000000000000000000000000000600052601160045260246000fd5b600061139982610c08565b91506113a483610c08565b92508282039050818111156113bc576113bb61135f565b5b92915050565b7f4e487b7100000000000000000000000000000000000000000000000000000000600052603260045260246000fd5b7f4e487b7100000000000000000000000000000000000000000000000000000000600052601260045260246000fd5b600061142b82610c08565b915061143683610c08565b925082611446576114456113f1565b5b828206905092915050565b600081905092915050565b50565b600061146c600083611451565b91506114778261145c565b600082019050919050565b600061148d8261145f565b915081905091905056fea26469706673582212207d23558f0a47a0f9b4ebc12190a1b4d5b8d7dc726a7d6692233d742a4ab8e57464736f6c63430008120033","opcodes":"PUSH2 0x160 PUSH1 0x40 MSTORE CALLVALUE DUP1 ISZERO PUSH3 0x12 JUMPI PUSH1 0x0 DUP1 REVERT JUMPDEST POP PUSH1 0x40 MLOAD PUSH3 0x18A3 CODESIZE SUB DUP1 PUSH3 0x18A3 DUP4 CODECOPY DUP2 DUP2 ADD PUSH1 0x40 MSTORE DUP2 ADD SWAP1 PUSH3 0x38 SWAP2 SWAP1 PUSH3 0x294 JUMP JUMPDEST DUP6 DUP1 PUSH20 0xFFFFFFFFFFFFFFFFFFFFFFFFFFFFFFFFFFFFFFFF AND PUSH1 0x80 DUP2 PUSH20 0xFFFFFFFFFFFFFFFFFFFFFFFFFFFFFFFFFFFFFFFF AND DUP2 MSTORE POP POP POP DUP2 PUSH1 0xA0 DUP2 DUP2 MSTORE POP POP DUP6 PUSH20 0xFFFFFFFFFFFFFFFFFFFFFFFFFFFFFFFFFFFFFFFF AND PUSH1 0xC0 DUP2 PUSH20 0xFFFFFFFFFFFFFFFFFFFFFFFFFFFFFFFFFFFFFFFF AND DUP2 MSTORE POP POP DUP4 PUSH1 0xE0 DUP2 DUP2 MSTORE POP POP DUP5 PUSH8 0xFFFFFFFFFFFFFFFF AND PUSH2 0x100 DUP2 PUSH8 0xFFFFFFFFFFFFFFFF AND DUP2 MSTORE POP POP DUP1 PUSH4 0xFFFFFFFF AND PUSH2 0x120 DUP2 PUSH4 0xFFFFFFFF AND DUP2 MSTORE POP POP PUSH1 0x0 PUSH1 0x1 PUSH1 0x14 PUSH2 0x100 EXP DUP2 SLOAD DUP2 PUSH1 0xFF MUL NOT AND SWAP1 DUP4 PUSH1 0x1 DUP2 GT ISZERO PUSH3 0x10D JUMPI PUSH3 0x10C PUSH3 0x330 JUMP JUMPDEST JUMPDEST MUL OR SWAP1 SSTORE POP TIMESTAMP PUSH1 0x2 DUP2 SWAP1 SSTORE POP DUP3 PUSH2 0x140 DUP2 DUP2 MSTORE POP POP POP POP POP POP POP POP PUSH3 0x35F JUMP JUMPDEST PUSH1 0x0 DUP1 REVERT JUMPDEST PUSH1 0x0 PUSH20 0xFFFFFFFFFFFFFFFFFFFFFFFFFFFFFFFFFFFFFFFF DUP3 AND SWAP1 POP SWAP2 SWAP1 POP JUMP JUMPDEST PUSH1 0x0 PUSH3 0x160 DUP3 PUSH3 0x133 JUMP JUMPDEST SWAP1 POP SWAP2 SWAP1 POP JUMP JUMPDEST PUSH3 0x172 DUP2 PUSH3 0x153 JUMP JUMPDEST DUP2 EQ PUSH3 0x17E JUMPI PUSH1 0x0 DUP1 REVERT JUMPDEST POP JUMP JUMPDEST PUSH1 0x0 DUP2 MLOAD SWAP1 POP PUSH3 0x192 DUP2 PUSH3 0x167 JUMP JUMPDEST SWAP3 SWAP2 POP POP JUMP JUMPDEST PUSH1 0x0 PUSH8 0xFFFFFFFFFFFFFFFF DUP3 AND SWAP1 POP SWAP2 SWAP1 POP JUMP JUMPDEST PUSH3 0x1B7 DUP2 PUSH3 0x198 JUMP JUMPDEST DUP2 EQ PUSH3 0x1C3 JUMPI PUSH1 0x0 DUP1 REVERT JUMPDEST POP JUMP JUMPDEST PUSH1 0x0 DUP2 MLOAD SWAP1 POP PUSH3 0x1D7 DUP2 PUSH3 0x1AC JUMP JUMPDEST SWAP3 SWAP2 POP POP JUMP JUMPDEST PUSH1 0x0 DUP2 SWAP1 POP SWAP2 SWAP1 POP JUMP JUMPDEST PUSH3 0x1F2 DUP2 PUSH3 0x1DD JUMP JUMPDEST DUP2 EQ PUSH3 0x1FE JUMPI PUSH1 0x0 DUP1 REVERT JUMPDEST POP JUMP JUMPDEST PUSH1 0x0 DUP2 MLOAD SWAP1 POP PUSH3 0x212 DUP2 PUSH3 0x1E7 JUMP JUMPDEST SWAP3 SWAP2 POP POP JUMP JUMPDEST PUSH1 0x0 DUP2 SWAP1 POP SWAP2 SWAP1 POP JUMP JUMPDEST PUSH3 0x22D DUP2 PUSH3 0x218 JUMP JUMPDEST DUP2 EQ PUSH3 0x239 JUMPI PUSH1 0x0 DUP1 REVERT JUMPDEST POP JUMP JUMPDEST PUSH1 0x0 DUP2 MLOAD SWAP1 POP PUSH3 0x24D DUP2 PUSH3 0x222 JUMP JUMPDEST SWAP3 SWAP2 POP POP JUMP JUMPDEST PUSH1 0x0 PUSH4 0xFFFFFFFF DUP3 AND SWAP1 POP SWAP2 SWAP1 POP JUMP JUMPDEST PUSH3 0x26E DUP2 PUSH3 0x253 JUMP JUMPDEST DUP2 EQ PUSH3 0x27A JUMPI PUSH1 0x0 DUP1 REVERT JUMPDEST POP JUMP JUMPDEST PUSH1 0x0 DUP2 MLOAD SWAP1 POP PUSH3 0x28E DUP2 PUSH3 0x263 JUMP JUMPDEST SWAP3 SWAP2 POP POP JUMP JUMPDEST PUSH1 0x0 DUP1 PUSH1 0x0 DUP1 PUSH1 0x0 DUP1 PUSH1 0xC0 DUP8 DUP10 SUB SLT ISZERO PUSH3 0x2B4 JUMPI PUSH3 0x2B3 PUSH3 0x12E JUMP JUMPDEST JUMPDEST PUSH1 0x0 PUSH3 0x2C4 DUP10 DUP3 DUP11 ADD PUSH3 0x181 JUMP JUMPDEST SWAP7 POP POP PUSH1 0x20 PUSH3 0x2D7 DUP10 DUP3 DUP11 ADD PUSH3 0x1C6 JUMP JUMPDEST SWAP6 POP POP PUSH1 0x40 PUSH3 0x2EA DUP10 DUP3 DUP11 ADD PUSH3 0x201 JUMP JUMPDEST SWAP5 POP POP PUSH1 0x60 PUSH3 0x2FD DUP10 DUP3 DUP11 ADD PUSH3 0x23C JUMP JUMPDEST SWAP4 POP POP PUSH1 0x80 PUSH3 0x310 DUP10 DUP3 DUP11 ADD PUSH3 0x23C JUMP JUMPDEST SWAP3 POP POP PUSH1 0xA0 PUSH3 0x323 DUP10 DUP3 DUP11 ADD PUSH3 0x27D JUMP JUMPDEST SWAP2 POP POP SWAP3 SWAP6 POP SWAP3 SWAP6 POP SWAP3 SWAP6 JUMP JUMPDEST PUSH32 0x4E487B7100000000000000000000000000000000000000000000000000000000 PUSH1 0x0 MSTORE PUSH1 0x21 PUSH1 0x4 MSTORE PUSH1 0x24 PUSH1 0x0 REVERT JUMPDEST PUSH1 0x80 MLOAD PUSH1 0xA0 MLOAD PUSH1 0xC0 MLOAD PUSH1 0xE0 MLOAD PUSH2 0x100 MLOAD PUSH2 0x120 MLOAD PUSH2 0x140 MLOAD PUSH2 0x14CD PUSH3 0x3D6 PUSH1 0x0 CODECOPY PUSH1 0x0 DUP2 DUP2 PUSH2 0x82E ADD MSTORE PUSH2 0x89D ADD MSTORE PUSH1 0x0 PUSH2 0x6EB ADD MSTORE PUSH1 0x0 PUSH2 0x6C8 ADD MSTORE PUSH1 0x0 PUSH2 0x6A7 ADD MSTORE PUSH1 0x0 PUSH2 0x66B ADD MSTORE PUSH1 0x0 DUP2 DUP2 PUSH2 0x340 ADD MSTORE DUP2 DUP2 PUSH2 0x43D ADD MSTORE PUSH2 0x8C5 ADD MSTORE PUSH1 0x0 DUP2 DUP2 PUSH2 0x37D ADD MSTORE PUSH2 0x3D1 ADD MSTORE PUSH2 0x14CD PUSH1 0x0 RETURN INVALID PUSH1 0x80 PUSH1 0x40 MSTORE PUSH1 0x4 CALLDATASIZE LT PUSH2 0xDD JUMPI PUSH1 0x0 CALLDATALOAD PUSH1 0xE0 SHR DUP1 PUSH4 0x53A2C19A GT PUSH2 0x7F JUMPI DUP1 PUSH4 0x6E04FF0D GT PUSH2 0x59 JUMPI DUP1 PUSH4 0x6E04FF0D EQ PUSH2 0x26B JUMPI DUP1 PUSH4 0x91AD27B4 EQ PUSH2 0x2A9 JUMPI DUP1 PUSH4 0xD91FE6EB EQ PUSH2 0x2D4 JUMPI DUP1 PUSH4 0xE55AE4E8 EQ PUSH2 0x2FF JUMPI PUSH2 0xDD JUMP JUMPDEST DUP1 PUSH4 0x53A2C19A EQ PUSH2 0x1EA JUMPI DUP1 PUSH4 0x565429DE EQ PUSH2 0x215 JUMPI DUP1 PUSH4 0x5F1B0FD8 EQ PUSH2 0x240 JUMPI PUSH2 0xDD JUMP JUMPDEST DUP1 PUSH4 0x2CFCC539 GT PUSH2 0xBB JUMPI DUP1 PUSH4 0x2CFCC539 EQ PUSH2 0x161 JUMPI DUP1 PUSH4 0x320229EB EQ PUSH2 0x16B JUMPI DUP1 PUSH4 0x4585E33B EQ PUSH2 0x196 JUMPI DUP1 PUSH4 0x473F1DDC EQ PUSH2 0x1BF JUMPI PUSH2 0xDD JUMP JUMPDEST DUP1 PUSH4 0x9BC33A7 EQ PUSH2 0xE2 JUMPI DUP1 PUSH4 0x115CBAF5 EQ PUSH2 0x10D JUMPI DUP1 PUSH4 0x1FE543E3 EQ PUSH2 0x138 JUMPI JUMPDEST PUSH1 0x0 DUP1 REVERT JUMPDEST CALLVALUE DUP1 ISZERO PUSH2 0xEE JUMPI PUSH1 0x0 DUP1 REVERT JUMPDEST POP PUSH2 0xF7 PUSH2 0x33C JUMP JUMPDEST PUSH1 0x40 MLOAD PUSH2 0x104 SWAP2 SWAP1 PUSH2 0xC21 JUMP JUMPDEST PUSH1 0x40 MLOAD DUP1 SWAP2 SUB SWAP1 RETURN JUMPDEST CALLVALUE DUP1 ISZERO PUSH2 0x119 JUMPI PUSH1 0x0 DUP1 REVERT JUMPDEST POP PUSH2 0x122 PUSH2 0x364 JUMP JUMPDEST PUSH1 0x40 MLOAD PUSH2 0x12F SWAP2 SWAP1 PUSH2 0xCB3 JUMP JUMPDEST PUSH1 0x40 MLOAD DUP1 SWAP2 SUB SWAP1 RETURN JUMPDEST CALLVALUE DUP1 ISZERO PUSH2 0x144 JUMPI PUSH1 0x0 DUP1 REVERT JUMPDEST POP PUSH2 0x15F PUSH1 0x4 DUP1 CALLDATASIZE SUB DUP2 ADD SWAP1 PUSH2 0x15A SWAP2 SWAP1 PUSH2 0xE67 JUMP JUMPDEST PUSH2 0x37B JUMP JUMPDEST STOP JUMPDEST PUSH2 0x169 PUSH2 0x43B JUMP JUMPDEST STOP JUMPDEST CALLVALUE DUP1 ISZERO PUSH2 0x177 JUMPI PUSH1 0x0 DUP1 REVERT JUMPDEST POP PUSH2 0x180 PUSH2 0x5AA JUMP JUMPDEST PUSH1 0x40 MLOAD PUSH2 0x18D SWAP2 SWAP1 PUSH2 0xC21 JUMP JUMPDEST PUSH1 0x40 MLOAD DUP1 SWAP2 SUB SWAP1 RETURN JUMPDEST CALLVALUE DUP1 ISZERO PUSH2 0x1A2 JUMPI PUSH1 0x0 DUP1 REVERT JUMPDEST POP PUSH2 0x1BD PUSH1 0x4 DUP1 CALLDATASIZE SUB DUP2 ADD SWAP1 PUSH2 0x1B8 SWAP2 SWAP1 PUSH2 0xF1E JUMP JUMPDEST PUSH2 0x5B4 JUMP JUMPDEST STOP JUMPDEST CALLVALUE DUP1 ISZERO PUSH2 0x1CB JUMPI PUSH1 0x0 DUP1 REVERT JUMPDEST POP PUSH2 0x1D4 PUSH2 0x7A4 JUMP JUMPDEST PUSH1 0x40 MLOAD PUSH2 0x1E1 SWAP2 SWAP1 PUSH2 0xFAC JUMP JUMPDEST PUSH1 0x40 MLOAD DUP1 SWAP2 SUB SWAP1 RETURN JUMPDEST CALLVALUE DUP1 ISZERO PUSH2 0x1F6 JUMPI PUSH1 0x0 DUP1 REVERT JUMPDEST POP PUSH2 0x1FF PUSH2 0x7CE JUMP JUMPDEST PUSH1 0x40 MLOAD PUSH2 0x20C SWAP2 SWAP1 PUSH2 0xFE6 JUMP JUMPDEST PUSH1 0x40 MLOAD DUP1 SWAP2 SUB SWAP1 RETURN JUMPDEST CALLVALUE DUP1 ISZERO PUSH2 0x221 JUMPI PUSH1 0x0 DUP1 REVERT JUMPDEST POP PUSH2 0x22A PUSH2 0x7D7 JUMP JUMPDEST PUSH1 0x40 MLOAD PUSH2 0x237 SWAP2 SWAP1 PUSH2 0xC21 JUMP JUMPDEST PUSH1 0x40 MLOAD DUP1 SWAP2 SUB SWAP1 RETURN JUMPDEST CALLVALUE DUP1 ISZERO PUSH2 0x24C JUMPI PUSH1 0x0 DUP1 REVERT JUMPDEST POP PUSH2 0x255 PUSH2 0x7E3 JUMP JUMPDEST PUSH1 0x40 MLOAD PUSH2 0x262 SWAP2 SWAP1 PUSH2 0x101E JUMP JUMPDEST PUSH1 0x40 MLOAD DUP1 SWAP2 SUB SWAP1 RETURN JUMPDEST CALLVALUE DUP1 ISZERO PUSH2 0x277 JUMPI PUSH1 0x0 DUP1 REVERT JUMPDEST POP PUSH2 0x292 PUSH1 0x4 DUP1 CALLDATASIZE SUB DUP2 ADD SWAP1 PUSH2 0x28D SWAP2 SWAP1 PUSH2 0x10EE JUMP JUMPDEST PUSH2 0x7EC JUMP JUMPDEST PUSH1 0x40 MLOAD PUSH2 0x2A0 SWAP3 SWAP2 SWAP1 PUSH2 0x11D1 JUMP JUMPDEST PUSH1 0x40 MLOAD DUP1 SWAP2 SUB SWAP1 RETURN JUMPDEST CALLVALUE DUP1 ISZERO PUSH2 0x2B5 JUMPI PUSH1 0x0 DUP1 REVERT JUMPDEST POP PUSH2 0x2BE PUSH2 0x899 JUMP JUMPDEST PUSH1 0x40 MLOAD PUSH2 0x2CB SWAP2 SWAP1 PUSH2 0xC21 JUMP JUMPDEST PUSH1 0x40 MLOAD DUP1 SWAP2 SUB SWAP1 RETURN JUMPDEST CALLVALUE DUP1 ISZERO PUSH2 0x2E0 JUMPI PUSH1 0x0 DUP1 REVERT JUMPDEST POP PUSH2 0x2E9 PUSH2 0x8C1 JUMP JUMPDEST PUSH1 0x40 MLOAD PUSH2 0x2F6 SWAP2 SWAP1 PUSH2 0xC21 JUMP JUMPDEST PUSH1 0x40 MLOAD DUP1 SWAP2 SUB SWAP1 RETURN JUMPDEST CALLVALUE DUP1 ISZERO PUSH2 0x30B JUMPI PUSH1 0x0 DUP1 REVERT JUMPDEST POP PUSH2 0x326 PUSH1 0x4 DUP1 CALLDATASIZE SUB DUP2 ADD SWAP1 PUSH2 0x321 SWAP2 SWAP1 PUSH2 0x1201 JUMP JUMPDEST PUSH2 0x8E9 JUMP JUMPDEST PUSH1 0x40 MLOAD PUSH2 0x333 SWAP2 SWAP1 PUSH2 0xFAC JUMP JUMPDEST PUSH1 0x40 MLOAD DUP1 SWAP2 SUB SWAP1 RETURN JUMPDEST PUSH1 0x0 PUSH32 0x0 SWAP1 POP SWAP1 JUMP JUMPDEST PUSH1 0x0 PUSH1 0x1 PUSH1 0x14 SWAP1 SLOAD SWAP1 PUSH2 0x100 EXP SWAP1 DIV PUSH1 0xFF AND SWAP1 POP SWAP1 JUMP JUMPDEST PUSH32 0x0 PUSH20 0xFFFFFFFFFFFFFFFFFFFFFFFFFFFFFFFFFFFFFFFF AND CALLER PUSH20 0xFFFFFFFFFFFFFFFFFFFFFFFFFFFFFFFFFFFFFFFF AND EQ PUSH2 0x42D JUMPI CALLER PUSH32 0x0 PUSH1 0x40 MLOAD PUSH32 0x1CF993F400000000000000000000000000000000000000000000000000000000 DUP2 MSTORE PUSH1 0x4 ADD PUSH2 0x424 SWAP3 SWAP2 SWAP1 PUSH2 0x122E JUMP JUMPDEST PUSH1 0x40 MLOAD DUP1 SWAP2 SUB SWAP1 REVERT JUMPDEST PUSH2 0x437 DUP3 DUP3 PUSH2 0x930 JUMP JUMPDEST POP POP JUMP JUMPDEST PUSH32 0x0 CALLVALUE LT ISZERO PUSH2 0x495 JUMPI PUSH1 0x40 MLOAD PUSH32 0x3038C00A00000000000000000000000000000000000000000000000000000000 DUP2 MSTORE PUSH1 0x4 ADD PUSH1 0x40 MLOAD DUP1 SWAP2 SUB SWAP1 REVERT JUMPDEST PUSH1 0x0 PUSH1 0x1 DUP2 GT ISZERO PUSH2 0x4A9 JUMPI PUSH2 0x4A8 PUSH2 0xC3C JUMP JUMPDEST JUMPDEST PUSH1 0x1 PUSH1 0x14 SWAP1 SLOAD SWAP1 PUSH2 0x100 EXP SWAP1 DIV PUSH1 0xFF AND PUSH1 0x1 DUP2 GT ISZERO PUSH2 0x4CB JUMPI PUSH2 0x4CA PUSH2 0xC3C JUMP JUMPDEST JUMPDEST EQ PUSH2 0x502 JUMPI PUSH1 0x40 MLOAD PUSH32 0xD24A271400000000000000000000000000000000000000000000000000000000 DUP2 MSTORE PUSH1 0x4 ADD PUSH1 0x40 MLOAD DUP1 SWAP2 SUB SWAP1 REVERT JUMPDEST PUSH1 0x0 CALLER SWAP1 DUP1 PUSH1 0x1 DUP2 SLOAD ADD DUP1 DUP3 SSTORE DUP1 SWAP2 POP POP PUSH1 0x1 SWAP1 SUB SWAP1 PUSH1 0x0 MSTORE PUSH1 0x20 PUSH1 0x0 KECCAK256 ADD PUSH1 0x0 SWAP1 SWAP2 SWAP1 SWAP2 SWAP1 SWAP2 PUSH2 0x100 EXP DUP2 SLOAD DUP2 PUSH20 0xFFFFFFFFFFFFFFFFFFFFFFFFFFFFFFFFFFFFFFFF MUL NOT AND SWAP1 DUP4 PUSH20 0xFFFFFFFFFFFFFFFFFFFFFFFFFFFFFFFFFFFFFFFF AND MUL OR SWAP1 SSTORE POP CALLER PUSH20 0xFFFFFFFFFFFFFFFFFFFFFFFFFFFFFFFFFFFFFFFF AND PUSH32 0x805E1D667BDDB8A95F0F09880CF94F403FB596CE79928D9F29B74203BA284D4 PUSH1 0x40 MLOAD PUSH1 0x40 MLOAD DUP1 SWAP2 SUB SWAP1 LOG2 JUMP JUMPDEST PUSH1 0x0 PUSH1 0x2 SLOAD SWAP1 POP SWAP1 JUMP JUMPDEST PUSH1 0x0 PUSH2 0x5CE PUSH1 0x40 MLOAD DUP1 PUSH1 0x20 ADD PUSH1 0x40 MSTORE DUP1 PUSH1 0x0 DUP2 MSTORE POP PUSH2 0x7EC JUMP JUMPDEST POP SWAP1 POP DUP1 PUSH2 0x63D JUMPI SELFBALANCE PUSH1 0x0 DUP1 SLOAD SWAP1 POP PUSH1 0x1 PUSH1 0x14 SWAP1 SLOAD SWAP1 PUSH2 0x100 EXP SWAP1 DIV PUSH1 0xFF AND PUSH1 0x1 DUP2 GT ISZERO PUSH2 0x5FF JUMPI PUSH2 0x5FE PUSH2 0xC3C JUMP JUMPDEST JUMPDEST PUSH1 0x40 MLOAD PUSH32 0x584327AA00000000000000000000000000000000000000000000000000000000 DUP2 MSTORE PUSH1 0x4 ADD PUSH2 0x634 SWAP4 SWAP3 SWAP2 SWAP1 PUSH2 0x1257 JUMP JUMPDEST PUSH1 0x40 MLOAD DUP1 SWAP2 SUB SWAP1 REVERT JUMPDEST PUSH1 0x1 DUP1 PUSH1 0x14 PUSH2 0x100 EXP DUP2 SLOAD DUP2 PUSH1 0xFF MUL NOT AND SWAP1 DUP4 PUSH1 0x1 DUP2 GT ISZERO PUSH2 0x662 JUMPI PUSH2 0x661 PUSH2 0xC3C JUMP JUMPDEST JUMPDEST MUL OR SWAP1 SSTORE POP PUSH1 0x0 PUSH32 0x0 PUSH20 0xFFFFFFFFFFFFFFFFFFFFFFFFFFFFFFFFFFFFFFFF AND PUSH4 0x5D3B1D30 PUSH32 0x0 PUSH32 0x0 PUSH1 0x3 PUSH32 0x0 PUSH1 0x1 PUSH1 0x40 MLOAD DUP7 PUSH4 0xFFFFFFFF AND PUSH1 0xE0 SHL DUP2 MSTORE PUSH1 0x4 ADD PUSH2 0x72C SWAP6 SWAP5 SWAP4 SWAP3 SWAP2 SWAP1 PUSH2 0x12CA JUMP JUMPDEST PUSH1 0x20 PUSH1 0x40 MLOAD DUP1 DUP4 SUB DUP2 PUSH1 0x0 DUP8 GAS CALL ISZERO DUP1 ISZERO PUSH2 0x74B JUMPI RETURNDATASIZE PUSH1 0x0 DUP1 RETURNDATACOPY RETURNDATASIZE PUSH1 0x0 REVERT JUMPDEST POP POP POP POP PUSH1 0x40 MLOAD RETURNDATASIZE PUSH1 0x1F NOT PUSH1 0x1F DUP3 ADD AND DUP3 ADD DUP1 PUSH1 0x40 MSTORE POP DUP2 ADD SWAP1 PUSH2 0x76F SWAP2 SWAP1 PUSH2 0x1332 JUMP JUMPDEST SWAP1 POP DUP1 PUSH32 0xCD6E45C8998311CAB7E9D4385596CAC867E20A0587194B954FA3A731C93CE78B PUSH1 0x40 MLOAD PUSH1 0x40 MLOAD DUP1 SWAP2 SUB SWAP1 LOG2 POP POP POP POP JUMP JUMPDEST PUSH1 0x0 PUSH1 0x1 PUSH1 0x0 SWAP1 SLOAD SWAP1 PUSH2 0x100 EXP SWAP1 DIV PUSH20 0xFFFFFFFFFFFFFFFFFFFFFFFFFFFFFFFFFFFFFFFF AND SWAP1 POP SWAP1 JUMP JUMPDEST PUSH1 0x0 PUSH1 0x1 SWAP1 POP SWAP1 JUMP JUMPDEST PUSH1 0x0 DUP1 DUP1 SLOAD SWAP1 POP SWAP1 POP SWAP1 JUMP JUMPDEST PUSH1 0x0 PUSH1 0x3 SWAP1 POP SWAP1 JUMP JUMPDEST PUSH1 0x0 PUSH1 0x60 PUSH1 0x0 DUP1 PUSH1 0x1 DUP2 GT ISZERO PUSH2 0x805 JUMPI PUSH2 0x804 PUSH2 0xC3C JUMP JUMPDEST JUMPDEST PUSH1 0x1 PUSH1 0x14 SWAP1 SLOAD SWAP1 PUSH2 0x100 EXP SWAP1 DIV PUSH1 0xFF AND PUSH1 0x1 DUP2 GT ISZERO PUSH2 0x827 JUMPI PUSH2 0x826 PUSH2 0xC3C JUMP JUMPDEST JUMPDEST EQ SWAP1 POP PUSH1 0x0 PUSH32 0x0 PUSH1 0x2 SLOAD TIMESTAMP PUSH2 0x85B SWAP2 SWAP1 PUSH2 0x138E JUMP JUMPDEST LT ISZERO SWAP1 POP PUSH1 0x0 DUP1 PUSH1 0x0 DUP1 SLOAD SWAP1 POP GT SWAP1 POP PUSH1 0x0 DUP1 SELFBALANCE GT SWAP1 POP DUP4 DUP1 ISZERO PUSH2 0x87C JUMPI POP DUP3 JUMPDEST DUP1 ISZERO PUSH2 0x885 JUMPI POP DUP2 JUMPDEST DUP1 ISZERO PUSH2 0x88E JUMPI POP DUP1 JUMPDEST SWAP6 POP POP POP POP POP SWAP2 POP SWAP2 JUMP JUMPDEST PUSH1 0x0 PUSH32 0x0 SWAP1 POP SWAP1 JUMP JUMPDEST PUSH1 0x0 PUSH32 0x0 SWAP1 POP SWAP1 JUMP JUMPDEST PUSH1 0x0 DUP1 DUP3 DUP2 SLOAD DUP2 LT PUSH2 0x8FE JUMPI PUSH2 0x8FD PUSH2 0x13C2 JUMP JUMPDEST JUMPDEST SWAP1 PUSH1 0x0 MSTORE PUSH1 0x20 PUSH1 0x0 KECCAK256 ADD PUSH1 0x0 SWAP1 SLOAD SWAP1 PUSH2 0x100 EXP SWAP1 DIV PUSH20 0xFFFFFFFFFFFFFFFFFFFFFFFFFFFFFFFFFFFFFFFF AND SWAP1 POP SWAP2 SWAP1 POP JUMP JUMPDEST PUSH1 0x0 DUP1 DUP1 SLOAD SWAP1 POP DUP3 PUSH1 0x0 DUP2 MLOAD DUP2 LT PUSH2 0x94B JUMPI PUSH2 0x94A PUSH2 0x13C2 JUMP JUMPDEST JUMPDEST PUSH1 0x20 MUL PUSH1 0x20 ADD ADD MLOAD PUSH2 0x95D SWAP2 SWAP1 PUSH2 0x1420 JUMP JUMPDEST SWAP1 POP PUSH1 0x0 DUP1 DUP3 DUP2 SLOAD DUP2 LT PUSH2 0x974 JUMPI PUSH2 0x973 PUSH2 0x13C2 JUMP JUMPDEST JUMPDEST SWAP1 PUSH1 0x0 MSTORE PUSH1 0x20 PUSH1 0x0 KECCAK256 ADD PUSH1 0x0 SWAP1 SLOAD SWAP1 PUSH2 0x100 EXP SWAP1 DIV PUSH20 0xFFFFFFFFFFFFFFFFFFFFFFFFFFFFFFFFFFFFFFFF AND SWAP1 POP DUP1 PUSH1 0x1 PUSH1 0x0 PUSH2 0x100 EXP DUP2 SLOAD DUP2 PUSH20 0xFFFFFFFFFFFFFFFFFFFFFFFFFFFFFFFFFFFFFFFF MUL NOT AND SWAP1 DUP4 PUSH20 0xFFFFFFFFFFFFFFFFFFFFFFFFFFFFFFFFFFFFFFFF AND MUL OR SWAP1 SSTORE POP PUSH1 0x0 PUSH1 0x1 PUSH1 0x14 PUSH2 0x100 EXP DUP2 SLOAD DUP2 PUSH1 0xFF MUL NOT AND SWAP1 DUP4 PUSH1 0x1 DUP2 GT ISZERO PUSH2 0xA08 JUMPI PUSH2 0xA07 PUSH2 0xC3C JUMP JUMPDEST JUMPDEST MUL OR SWAP1 SSTORE POP PUSH1 0x0 PUSH8 0xFFFFFFFFFFFFFFFF DUP2 GT ISZERO PUSH2 0xA28 JUMPI PUSH2 0xA27 PUSH2 0xD24 JUMP JUMPDEST JUMPDEST PUSH1 0x40 MLOAD SWAP1 DUP1 DUP3 MSTORE DUP1 PUSH1 0x20 MUL PUSH1 0x20 ADD DUP3 ADD PUSH1 0x40 MSTORE DUP1 ISZERO PUSH2 0xA56 JUMPI DUP2 PUSH1 0x20 ADD PUSH1 0x20 DUP3 MUL DUP1 CALLDATASIZE DUP4 CALLDATACOPY DUP1 DUP3 ADD SWAP2 POP POP SWAP1 POP JUMPDEST POP PUSH1 0x0 SWAP1 DUP1 MLOAD SWAP1 PUSH1 0x20 ADD SWAP1 PUSH2 0xA6C SWAP3 SWAP2 SWAP1 PUSH2 0xB61 JUMP JUMPDEST POP TIMESTAMP PUSH1 0x2 DUP2 SWAP1 SSTORE POP PUSH1 0x0 DUP2 PUSH20 0xFFFFFFFFFFFFFFFFFFFFFFFFFFFFFFFFFFFFFFFF AND SELFBALANCE PUSH1 0x40 MLOAD PUSH2 0xA9A SWAP1 PUSH2 0x1482 JUMP JUMPDEST PUSH1 0x0 PUSH1 0x40 MLOAD DUP1 DUP4 SUB DUP2 DUP6 DUP8 GAS CALL SWAP3 POP POP POP RETURNDATASIZE DUP1 PUSH1 0x0 DUP2 EQ PUSH2 0xAD7 JUMPI PUSH1 0x40 MLOAD SWAP2 POP PUSH1 0x1F NOT PUSH1 0x3F RETURNDATASIZE ADD AND DUP3 ADD PUSH1 0x40 MSTORE RETURNDATASIZE DUP3 MSTORE RETURNDATASIZE PUSH1 0x0 PUSH1 0x20 DUP5 ADD RETURNDATACOPY PUSH2 0xADC JUMP JUMPDEST PUSH1 0x60 SWAP2 POP JUMPDEST POP POP SWAP1 POP DUP1 PUSH2 0xB17 JUMPI PUSH1 0x40 MLOAD PUSH32 0xA1D04B3900000000000000000000000000000000000000000000000000000000 DUP2 MSTORE PUSH1 0x4 ADD PUSH1 0x40 MLOAD DUP1 SWAP2 SUB SWAP1 REVERT JUMPDEST DUP2 PUSH20 0xFFFFFFFFFFFFFFFFFFFFFFFFFFFFFFFFFFFFFFFF AND PUSH32 0x5B690EC4A06FE979403046EAEEA5B3CE38524683C3001F662C8B5A829632F7DF PUSH1 0x40 MLOAD PUSH1 0x40 MLOAD DUP1 SWAP2 SUB SWAP1 LOG2 POP POP POP POP POP JUMP JUMPDEST DUP3 DUP1 SLOAD DUP3 DUP3 SSTORE SWAP1 PUSH1 0x0 MSTORE PUSH1 0x20 PUSH1 0x0 KECCAK256 SWAP1 DUP2 ADD SWAP3 DUP3 ISZERO PUSH2 0xBDA JUMPI SWAP2 PUSH1 0x20 MUL DUP3 ADD JUMPDEST DUP3 DUP2 GT ISZERO PUSH2 0xBD9 JUMPI DUP3 MLOAD DUP3 PUSH1 0x0 PUSH2 0x100 EXP DUP2 SLOAD DUP2 PUSH20 0xFFFFFFFFFFFFFFFFFFFFFFFFFFFFFFFFFFFFFFFF MUL NOT AND SWAP1 DUP4 PUSH20 0xFFFFFFFFFFFFFFFFFFFFFFFFFFFFFFFFFFFFFFFF AND MUL OR SWAP1 SSTORE POP SWAP2 PUSH1 0x20 ADD SWAP2 SWAP1 PUSH1 0x1 ADD SWAP1 PUSH2 0xB81 JUMP JUMPDEST JUMPDEST POP SWAP1 POP PUSH2 0xBE7 SWAP2 SWAP1 PUSH2 0xBEB JUMP JUMPDEST POP SWAP1 JUMP JUMPDEST JUMPDEST DUP1 DUP3 GT ISZERO PUSH2 0xC04 JUMPI PUSH1 0x0 DUP2 PUSH1 0x0 SWAP1 SSTORE POP PUSH1 0x1 ADD PUSH2 0xBEC JUMP JUMPDEST POP SWAP1 JUMP JUMPDEST PUSH1 0x0 DUP2 SWAP1 POP SWAP2 SWAP1 POP JUMP JUMPDEST PUSH2 0xC1B DUP2 PUSH2 0xC08 JUMP JUMPDEST DUP3 MSTORE POP POP JUMP JUMPDEST PUSH1 0x0 PUSH1 0x20 DUP3 ADD SWAP1 POP PUSH2 0xC36 PUSH1 0x0 DUP4 ADD DUP5 PUSH2 0xC12 JUMP JUMPDEST SWAP3 SWAP2 POP POP JUMP JUMPDEST PUSH32 0x4E487B7100000000000000000000000000000000000000000000000000000000 PUSH1 0x0 MSTORE PUSH1 0x21 PUSH1 0x4 MSTORE PUSH1 0x24 PUSH1 0x0 REVERT JUMPDEST PUSH1 0x2 DUP2 LT PUSH2 0xC7C JUMPI PUSH2 0xC7B PUSH2 0xC3C JUMP JUMPDEST JUMPDEST POP JUMP JUMPDEST PUSH1 0x0 DUP2 SWAP1 POP PUSH2 0xC8D DUP3 PUSH2 0xC6B JUMP JUMPDEST SWAP2 SWAP1 POP JUMP JUMPDEST PUSH1 0x0 PUSH2 0xC9D DUP3 PUSH2 0xC7F JUMP JUMPDEST SWAP1 POP SWAP2 SWAP1 POP JUMP JUMPDEST PUSH2 0xCAD DUP2 PUSH2 0xC92 JUMP JUMPDEST DUP3 MSTORE POP POP JUMP JUMPDEST PUSH1 0x0 PUSH1 0x20 DUP3 ADD SWAP1 POP PUSH2 0xCC8 PUSH1 0x0 DUP4 ADD DUP5 PUSH2 0xCA4 JUMP JUMPDEST SWAP3 SWAP2 POP POP JUMP JUMPDEST PUSH1 0x0 PUSH1 0x40 MLOAD SWAP1 POP SWAP1 JUMP JUMPDEST PUSH1 0x0 DUP1 REVERT JUMPDEST PUSH1 0x0 DUP1 REVERT JUMPDEST PUSH2 0xCEB DUP2 PUSH2 0xC08 JUMP JUMPDEST DUP2 EQ PUSH2 0xCF6 JUMPI PUSH1 0x0 DUP1 REVERT JUMPDEST POP JUMP JUMPDEST PUSH1 0x0 DUP2 CALLDATALOAD SWAP1 POP PUSH2 0xD08 DUP2 PUSH2 0xCE2 JUMP JUMPDEST SWAP3 SWAP2 POP POP JUMP JUMPDEST PUSH1 0x0 DUP1 REVERT JUMPDEST PUSH1 0x0 PUSH1 0x1F NOT PUSH1 0x1F DUP4 ADD AND SWAP1 POP SWAP2 SWAP1 POP JUMP JUMPDEST PUSH32 0x4E487B7100000000000000000000000000000000000000000000000000000000 PUSH1 0x0 MSTORE PUSH1 0x41 PUSH1 0x4 MSTORE PUSH1 0x24 PUSH1 0x0 REVERT JUMPDEST PUSH2 0xD5C DUP3 PUSH2 0xD13 JUMP JUMPDEST DUP2 ADD DUP2 DUP2 LT PUSH8 0xFFFFFFFFFFFFFFFF DUP3 GT OR ISZERO PUSH2 0xD7B JUMPI PUSH2 0xD7A PUSH2 0xD24 JUMP JUMPDEST JUMPDEST DUP1 PUSH1 0x40 MSTORE POP POP POP JUMP JUMPDEST PUSH1 0x0 PUSH2 0xD8E PUSH2 0xCCE JUMP JUMPDEST SWAP1 POP PUSH2 0xD9A DUP3 DUP3 PUSH2 0xD53 JUMP JUMPDEST SWAP2 SWAP1 POP JUMP JUMPDEST PUSH1 0x0 PUSH8 0xFFFFFFFFFFFFFFFF DUP3 GT ISZERO PUSH2 0xDBA JUMPI PUSH2 0xDB9 PUSH2 0xD24 JUMP JUMPDEST JUMPDEST PUSH1 0x20 DUP3 MUL SWAP1 POP PUSH1 0x20 DUP2 ADD SWAP1 POP SWAP2 SWAP1 POP JUMP JUMPDEST PUSH1 0x0 DUP1 REVERT JUMPDEST PUSH1 0x0 PUSH2 0xDE3 PUSH2 0xDDE DUP5 PUSH2 0xD9F JUMP JUMPDEST PUSH2 0xD84 JUMP JUMPDEST SWAP1 POP DUP1 DUP4 DUP3 MSTORE PUSH1 0x20 DUP3 ADD SWAP1 POP PUSH1 0x20 DUP5 MUL DUP4 ADD DUP6 DUP2 GT ISZERO PUSH2 0xE06 JUMPI PUSH2 0xE05 PUSH2 0xDCB JUMP JUMPDEST JUMPDEST DUP4 JUMPDEST DUP2 DUP2 LT ISZERO PUSH2 0xE2F JUMPI DUP1 PUSH2 0xE1B DUP9 DUP3 PUSH2 0xCF9 JUMP JUMPDEST DUP5 MSTORE PUSH1 0x20 DUP5 ADD SWAP4 POP POP PUSH1 0x20 DUP2 ADD SWAP1 POP PUSH2 0xE08 JUMP JUMPDEST POP POP POP SWAP4 SWAP3 POP POP POP JUMP JUMPDEST PUSH1 0x0 DUP3 PUSH1 0x1F DUP4 ADD SLT PUSH2 0xE4E JUMPI PUSH2 0xE4D PUSH2 0xD0E JUMP JUMPDEST JUMPDEST DUP2 CALLDATALOAD PUSH2 0xE5E DUP5 DUP3 PUSH1 0x20 DUP7 ADD PUSH2 0xDD0 JUMP JUMPDEST SWAP2 POP POP SWAP3 SWAP2 POP POP JUMP JUMPDEST PUSH1 0x0 DUP1 PUSH1 0x40 DUP4 DUP6 SUB SLT ISZERO PUSH2 0xE7E JUMPI PUSH2 0xE7D PUSH2 0xCD8 JUMP JUMPDEST JUMPDEST PUSH1 0x0 PUSH2 0xE8C DUP6 DUP3 DUP7 ADD PUSH2 0xCF9 JUMP JUMPDEST SWAP3 POP POP PUSH1 0x20 DUP4 ADD CALLDATALOAD PUSH8 0xFFFFFFFFFFFFFFFF DUP2 GT ISZERO PUSH2 0xEAD JUMPI PUSH2 0xEAC PUSH2 0xCDD JUMP JUMPDEST JUMPDEST PUSH2 0xEB9 DUP6 DUP3 DUP7 ADD PUSH2 0xE39 JUMP JUMPDEST SWAP2 POP POP SWAP3 POP SWAP3 SWAP1 POP JUMP JUMPDEST PUSH1 0x0 DUP1 REVERT JUMPDEST PUSH1 0x0 DUP1 DUP4 PUSH1 0x1F DUP5 ADD SLT PUSH2 0xEDE JUMPI PUSH2 0xEDD PUSH2 0xD0E JUMP JUMPDEST JUMPDEST DUP3 CALLDATALOAD SWAP1 POP PUSH8 0xFFFFFFFFFFFFFFFF DUP2 GT ISZERO PUSH2 0xEFB JUMPI PUSH2 0xEFA PUSH2 0xEC3 JUMP JUMPDEST JUMPDEST PUSH1 0x20 DUP4 ADD SWAP2 POP DUP4 PUSH1 0x1 DUP3 MUL DUP4 ADD GT ISZERO PUSH2 0xF17 JUMPI PUSH2 0xF16 PUSH2 0xDCB JUMP JUMPDEST JUMPDEST SWAP3 POP SWAP3 SWAP1 POP JUMP JUMPDEST PUSH1 0x0 DUP1 PUSH1 0x20 DUP4 DUP6 SUB SLT ISZERO PUSH2 0xF35 JUMPI PUSH2 0xF34 PUSH2 0xCD8 JUMP JUMPDEST JUMPDEST PUSH1 0x0 DUP4 ADD CALLDATALOAD PUSH8 0xFFFFFFFFFFFFFFFF DUP2 GT ISZERO PUSH2 0xF53 JUMPI PUSH2 0xF52 PUSH2 0xCDD JUMP JUMPDEST JUMPDEST PUSH2 0xF5F DUP6 DUP3 DUP7 ADD PUSH2 0xEC8 JUMP JUMPDEST SWAP3 POP SWAP3 POP POP SWAP3 POP SWAP3 SWAP1 POP JUMP JUMPDEST PUSH1 0x0 PUSH20 0xFFFFFFFFFFFFFFFFFFFFFFFFFFFFFFFFFFFFFFFF DUP3 AND SWAP1 POP SWAP2 SWAP1 POP JUMP JUMPDEST PUSH1 0x0 PUSH2 0xF96 DUP3 PUSH2 0xF6B JUMP JUMPDEST SWAP1 POP SWAP2 SWAP1 POP JUMP JUMPDEST PUSH2 0xFA6 DUP2 PUSH2 0xF8B JUMP JUMPDEST DUP3 MSTORE POP POP JUMP JUMPDEST PUSH1 0x0 PUSH1 0x20 DUP3 ADD SWAP1 POP PUSH2 0xFC1 PUSH1 0x0 DUP4 ADD DUP5 PUSH2 0xF9D JUMP JUMPDEST SWAP3 SWAP2 POP POP JUMP JUMPDEST PUSH1 0x0 PUSH4 0xFFFFFFFF DUP3 AND SWAP1 POP SWAP2 SWAP1 POP JUMP JUMPDEST PUSH2 0xFE0 DUP2 PUSH2 0xFC7 JUMP JUMPDEST DUP3 MSTORE POP POP JUMP JUMPDEST PUSH1 0x0 PUSH1 0x20 DUP3 ADD SWAP1 POP PUSH2 0xFFB PUSH1 0x0 DUP4 ADD DUP5 PUSH2 0xFD7 JUMP JUMPDEST SWAP3 SWAP2 POP POP JUMP JUMPDEST PUSH1 0x0 PUSH2 0xFFFF DUP3 AND SWAP1 POP SWAP2 SWAP1 POP JUMP JUMPDEST PUSH2 0x1018 DUP2 PUSH2 0x1001 JUMP JUMPDEST DUP3 MSTORE POP POP JUMP JUMPDEST PUSH1 0x0 PUSH1 0x20 DUP3 ADD SWAP1 POP PUSH2 0x1033 PUSH1 0x0 DUP4 ADD DUP5 PUSH2 0x100F JUMP JUMPDEST SWAP3 SWAP2 POP POP JUMP JUMPDEST PUSH1 0x0 DUP1 REVERT JUMPDEST PUSH1 0x0 PUSH8 0xFFFFFFFFFFFFFFFF DUP3 GT ISZERO PUSH2 0x1059 JUMPI PUSH2 0x1058 PUSH2 0xD24 JUMP JUMPDEST JUMPDEST PUSH2 0x1062 DUP3 PUSH2 0xD13 JUMP JUMPDEST SWAP1 POP PUSH1 0x20 DUP2 ADD SWAP1 POP SWAP2 SWAP1 POP JUMP JUMPDEST DUP3 DUP2 DUP4 CALLDATACOPY PUSH1 0x0 DUP4 DUP4 ADD MSTORE POP POP POP JUMP JUMPDEST PUSH1 0x0 PUSH2 0x1091 PUSH2 0x108C DUP5 PUSH2 0x103E JUMP JUMPDEST PUSH2 0xD84 JUMP JUMPDEST SWAP1 POP DUP3 DUP2 MSTORE PUSH1 0x20 DUP2 ADD DUP5 DUP5 DUP5 ADD GT ISZERO PUSH2 0x10AD JUMPI PUSH2 0x10AC PUSH2 0x1039 JUMP JUMPDEST JUMPDEST PUSH2 0x10B8 DUP5 DUP3 DUP6 PUSH2 0x106F JUMP JUMPDEST POP SWAP4 SWAP3 POP POP POP JUMP JUMPDEST PUSH1 0x0 DUP3 PUSH1 0x1F DUP4 ADD SLT PUSH2 0x10D5 JUMPI PUSH2 0x10D4 PUSH2 0xD0E JUMP JUMPDEST JUMPDEST DUP2 CALLDATALOAD PUSH2 0x10E5 DUP5 DUP3 PUSH1 0x20 DUP7 ADD PUSH2 0x107E JUMP JUMPDEST SWAP2 POP POP SWAP3 SWAP2 POP POP JUMP JUMPDEST PUSH1 0x0 PUSH1 0x20 DUP3 DUP5 SUB SLT ISZERO PUSH2 0x1104 JUMPI PUSH2 0x1103 PUSH2 0xCD8 JUMP JUMPDEST JUMPDEST PUSH1 0x0 DUP3 ADD CALLDATALOAD PUSH8 0xFFFFFFFFFFFFFFFF DUP2 GT ISZERO PUSH2 0x1122 JUMPI PUSH2 0x1121 PUSH2 0xCDD JUMP JUMPDEST JUMPDEST PUSH2 0x112E DUP5 DUP3 DUP6 ADD PUSH2 0x10C0 JUMP JUMPDEST SWAP2 POP POP SWAP3 SWAP2 POP POP JUMP JUMPDEST PUSH1 0x0 DUP2 ISZERO ISZERO SWAP1 POP SWAP2 SWAP1 POP JUMP JUMPDEST PUSH2 0x114C DUP2 PUSH2 0x1137 JUMP JUMPDEST DUP3 MSTORE POP POP JUMP JUMPDEST PUSH1 0x0 DUP2 MLOAD SWAP1 POP SWAP2 SWAP1 POP JUMP JUMPDEST PUSH1 0x0 DUP3 DUP3 MSTORE PUSH1 0x20 DUP3 ADD SWAP1 POP SWAP3 SWAP2 POP POP JUMP JUMPDEST PUSH1 0x0 JUMPDEST DUP4 DUP2 LT ISZERO PUSH2 0x118C JUMPI DUP1 DUP3 ADD MLOAD DUP2 DUP5 ADD MSTORE PUSH1 0x20 DUP2 ADD SWAP1 POP PUSH2 0x1171 JUMP JUMPDEST PUSH1 0x0 DUP5 DUP5 ADD MSTORE POP POP POP POP JUMP JUMPDEST PUSH1 0x0 PUSH2 0x11A3 DUP3 PUSH2 0x1152 JUMP JUMPDEST PUSH2 0x11AD DUP2 DUP6 PUSH2 0x115D JUMP JUMPDEST SWAP4 POP PUSH2 0x11BD DUP2 DUP6 PUSH1 0x20 DUP7 ADD PUSH2 0x116E JUMP JUMPDEST PUSH2 0x11C6 DUP2 PUSH2 0xD13 JUMP JUMPDEST DUP5 ADD SWAP2 POP POP SWAP3 SWAP2 POP POP JUMP JUMPDEST PUSH1 0x0 PUSH1 0x40 DUP3 ADD SWAP1 POP PUSH2 0x11E6 PUSH1 0x0 DUP4 ADD DUP6 PUSH2 0x1143 JUMP JUMPDEST DUP2 DUP2 SUB PUSH1 0x20 DUP4 ADD MSTORE PUSH2 0x11F8 DUP2 DUP5 PUSH2 0x1198 JUMP JUMPDEST SWAP1 POP SWAP4 SWAP3 POP POP POP JUMP JUMPDEST PUSH1 0x0 PUSH1 0x20 DUP3 DUP5 SUB SLT ISZERO PUSH2 0x1217 JUMPI PUSH2 0x1216 PUSH2 0xCD8 JUMP JUMPDEST JUMPDEST PUSH1 0x0 PUSH2 0x1225 DUP5 DUP3 DUP6 ADD PUSH2 0xCF9 JUMP JUMPDEST SWAP2 POP POP SWAP3 SWAP2 POP POP JUMP JUMPDEST PUSH1 0x0 PUSH1 0x40 DUP3 ADD SWAP1 POP PUSH2 0x1243 PUSH1 0x0 DUP4 ADD DUP6 PUSH2 0xF9D JUMP JUMPDEST PUSH2 0x1250 PUSH1 0x20 DUP4 ADD DUP5 PUSH2 0xF9D JUMP JUMPDEST SWAP4 SWAP3 POP POP POP JUMP JUMPDEST PUSH1 0x0 PUSH1 0x60 DUP3 ADD SWAP1 POP PUSH2 0x126C PUSH1 0x0 DUP4 ADD DUP7 PUSH2 0xC12 JUMP JUMPDEST PUSH2 0x1279 PUSH1 0x20 DUP4 ADD DUP6 PUSH2 0xC12 JUMP JUMPDEST PUSH2 0x1286 PUSH1 0x40 DUP4 ADD DUP5 PUSH2 0xC12 JUMP JUMPDEST SWAP5 SWAP4 POP POP POP POP JUMP JUMPDEST PUSH1 0x0 DUP2 SWAP1 POP SWAP2 SWAP1 POP JUMP JUMPDEST PUSH2 0x12A1 DUP2 PUSH2 0x128E JUMP JUMPDEST DUP3 MSTORE POP POP JUMP JUMPDEST PUSH1 0x0 PUSH8 0xFFFFFFFFFFFFFFFF DUP3 AND SWAP1 POP SWAP2 SWAP1 POP JUMP JUMPDEST PUSH2 0x12C4 DUP2 PUSH2 0x12A7 JUMP JUMPDEST DUP3 MSTORE POP POP JUMP JUMPDEST PUSH1 0x0 PUSH1 0xA0 DUP3 ADD SWAP1 POP PUSH2 0x12DF PUSH1 0x0 DUP4 ADD DUP9 PUSH2 0x1298 JUMP JUMPDEST PUSH2 0x12EC PUSH1 0x20 DUP4 ADD DUP8 PUSH2 0x12BB JUMP JUMPDEST PUSH2 0x12F9 PUSH1 0x40 DUP4 ADD DUP7 PUSH2 0x100F JUMP JUMPDEST PUSH2 0x1306 PUSH1 0x60 DUP4 ADD DUP6 PUSH2 0xFD7 JUMP JUMPDEST PUSH2 0x1313 PUSH1 0x80 DUP4 ADD DUP5 PUSH2 0xFD7 JUMP JUMPDEST SWAP7 SWAP6 POP POP POP POP POP POP JUMP JUMPDEST PUSH1 0x0 DUP2 MLOAD SWAP1 POP PUSH2 0x132C DUP2 PUSH2 0xCE2 JUMP JUMPDEST SWAP3 SWAP2 POP POP JUMP JUMPDEST PUSH1 0x0 PUSH1 0x20 DUP3 DUP5 SUB SLT ISZERO PUSH2 0x1348 JUMPI PUSH2 0x1347 PUSH2 0xCD8 JUMP JUMPDEST JUMPDEST PUSH1 0x0 PUSH2 0x1356 DUP5 DUP3 DUP6 ADD PUSH2 0x131D JUMP JUMPDEST SWAP2 POP POP SWAP3 SWAP2 POP POP JUMP JUMPDEST PUSH32 0x4E487B7100000000000000000000000000000000000000000000000000000000 PUSH1 0x0 MSTORE PUSH1 0x11 PUSH1 0x4 MSTORE PUSH1 0x24 PUSH1 0x0 REVERT JUMPDEST PUSH1 0x0 PUSH2 0x1399 DUP3 PUSH2 0xC08 JUMP JUMPDEST SWAP2 POP PUSH2 0x13A4 DUP4 PUSH2 0xC08 JUMP JUMPDEST SWAP3 POP DUP3 DUP3 SUB SWAP1 POP DUP2 DUP2 GT ISZERO PUSH2 0x13BC JUMPI PUSH2 0x13BB PUSH2 0x135F JUMP JUMPDEST JUMPDEST SWAP3 SWAP2 POP POP JUMP JUMPDEST PUSH32 0x4E487B7100000000000000000000000000000000000000000000000000000000 PUSH1 0x0 MSTORE PUSH1 0x32 PUSH1 0x4 MSTORE PUSH1 0x24 PUSH1 0x0 REVERT JUMPDEST PUSH32 0x4E487B7100000000000000000000000000000000000000000000000000000000 PUSH1 0x0 MSTORE PUSH1 0x12 PUSH1 0x4 MSTORE PUSH1 0x24 PUSH1 0x0 REVERT JUMPDEST PUSH1 0x0 PUSH2 0x142B DUP3 PUSH2 0xC08 JUMP JUMPDEST SWAP2 POP PUSH2 0x1436 DUP4 PUSH2 0xC08 JUMP JUMPDEST SWAP3 POP DUP3 PUSH2 0x1446 JUMPI PUSH2 0x1445 PUSH2 0x13F1 JUMP JUMPDEST JUMPDEST DUP3 DUP3 MOD SWAP1 POP SWAP3 SWAP2 POP POP JUMP JUMPDEST PUSH1 0x0 DUP2 SWAP1 POP SWAP3 SWAP2 POP POP JUMP JUMPDEST POP JUMP JUMPDEST PUSH1 0x0 PUSH2 0x146C PUSH1 0x0 DUP4 PUSH2 0x1451 JUMP JUMPDEST SWAP2 POP PUSH2 0x1477 DUP3 PUSH2 0x145C JUMP JUMPDEST PUSH1 0x0 DUP3 ADD SWAP1 POP SWAP2 SWAP1 POP JUMP JUMPDEST PUSH1 0x0 PUSH2 0x148D DUP3 PUSH2 0x145F JUMP JUMPDEST SWAP2 POP DUP2 SWAP1 POP SWAP2 SWAP1 POP JUMP INVALID LOG2 PUSH5 0x6970667358 0x22 SLT KECCAK256 PUSH30 0x23558F0A47A0F9B4EBC12190A1B4D5B8D7DC726A7D6692233D742A4AB8E5 PUSH21 0x64736F6C6343000812003300000000000000000000 "},"gasEstimates":{"creation":{"codeDepositCost":"1065000","executionCost":"infinite","totalCost":"infinite"},"external":{"checkUpkeep(bytes)":"infinite","enterRaffle()":"infinite","getEntranceFee()":"infinite","getInterval()":"infinite","getLatestTimeStamp()":"2482","getNumOfPlayers()":"2490","getNumWords()":"366","getPlayer(uint256)":"5055","getRaffleState()":"2664","getRecentWinner()":"2611","getRequestConfirmations()":"410","getenteranceFee()":"infinite","performUpkeep(bytes)":"infinite","rawFulfillRandomWords(uint256,uint256[])":"infinite"},"internal":{"fulfillRandomWords(uint256,uint256[] memory)":"infinite"}},"methodIdentifiers":{"checkUpkeep(bytes)":"6e04ff0d","enterRaffle()":"2cfcc539","getEntranceFee()":"09bc33a7","getInterval()":"91ad27b4","getLatestTimeStamp()":"320229eb","getNumOfPlayers()":"565429de","getNumWords()":"53a2c19a","getPlayer(uint256)":"e55ae4e8","getRaffleState()":"115cbaf5","getRecentWinner()":"473f1ddc","getRequestConfirmations()":"5f1b0fd8","getenteranceFee()":"d91fe6eb","performUpkeep(bytes)":"4585e33b","rawFulfillRandomWords(uint256,uint256[])":"1fe543e3"}},"storageLayout":{"storage":[{"astId":208,"contract":"contracts/Raffle.sol:Raffle","label":"s_players","offset":0,"slot":"0","type":"t_array(t_address_payable)dyn_storage"},{"astId":225,"contract":"contracts/Raffle.sol:Raffle","label":"s_recentWinner","offset":0,"slot":"1","type":"t_address"},{"astId":228,"contract":"contracts/Raffle.sol:Raffle","label":"s_raffleState","offset":20,"slot":"1","type":"t_enum(RaffleState)203"},{"astId":230,"contract":"contracts/Raffle.sol:Raffle","label":"s_lastTimeStamp","offset":0,"slot":"2","type":"t_uint256"}],"types":{"t_address":{"encoding":"inplace","label":"address","numberOfBytes":"20"},"t_address_payable":{"encoding":"inplace","label":"address payable","numberOfBytes":"20"},"t_array(t_address_payable)dyn_storage":{"base":"t_address_payable","encoding":"dynamic_array","label":"address payable[]","numberOfBytes":"32"},"t_enum(RaffleState)203":{"encoding":"inplace","label":"enum Raffle.RaffleState","numberOfBytes":"1"},"t_uint256":{"encoding":"inplace","label":"uint256","numberOfBytes":"32"}}},"userdoc":{"kind":"user","methods":{},"version":1}}}}