{
  "_format": "hh-sol-artifact-1",
  "contractName": "Raffle",
  "sourceName": "contracts/Raffle.sol",
  "abi": [
    {
      "inputs": [
        {
          "internalType": "address",
          "name": "vrfCoordinatorV2",
          "type": "address"
        },
        {
          "internalType": "uint64",
          "name": "subscriptionId",
          "type": "uint64"
        },
        {
          "internalType": "bytes32",
          "name": "keyHash",
          "type": "bytes32"
        },
        {
          "internalType": "uint256",
          "name": "interval",
          "type": "uint256"
        },
        {
          "internalType": "uint256",
          "name": "enteranceFee",
          "type": "uint256"
        },
        {
          "internalType": "uint32",
          "name": "callbackGasLimit",
          "type": "uint32"
        }
      ],
      "stateMutability": "nonpayable",
      "type": "constructor"
    },
    {
      "inputs": [
        {
          "internalType": "address",
          "name": "have",
          "type": "address"
        },
        {
          "internalType": "address",
          "name": "want",
          "type": "address"
        }
      ],
      "name": "OnlyCoordinatorCanFulfill",
      "type": "error"
    },
    {
      "inputs": [],
      "name": "Raffle__NotEnoughETHEntered",
      "type": "error"
    },
    {
      "inputs": [],
      "name": "Raffle__NotOpened",
      "type": "error"
    },
    {
      "inputs": [],
      "name": "Raffle__TransferFailed",
      "type": "error"
    },
    {
      "inputs": [
        {
          "internalType": "uint256",
          "name": "balance",
          "type": "uint256"
        },
        {
          "internalType": "uint256",
          "name": "playersLength",
          "type": "uint256"
        },
        {
          "internalType": "uint256",
          "name": "raffleState",
          "type": "uint256"
        }
      ],
      "name": "Raffle__upkeepNotNeeded",
      "type": "error"
    },
    {
      "anonymous": false,
      "inputs": [
        {
          "indexed": true,
          "internalType": "address",
          "name": "player",
          "type": "address"
        }
      ],
      "name": "RaffleEnter",
      "type": "event"
    },
    {
      "anonymous": false,
      "inputs": [
        {
          "indexed": true,
          "internalType": "uint256",
          "name": "requestId",
          "type": "uint256"
        }
      ],
      "name": "RequestedRaffleWinner",
      "type": "event"
    },
    {
      "anonymous": false,
      "inputs": [
        {
          "indexed": true,
          "internalType": "address",
          "name": "winner",
          "type": "address"
        }
      ],
      "name": "WinnerPicked",
      "type": "event"
    },
    {
      "inputs": [
        {
          "internalType": "bytes",
          "name": "",
          "type": "bytes"
        }
      ],
      "name": "checkUpkeep",
      "outputs": [
        {
          "internalType": "bool",
          "name": "upkeepNeeded",
          "type": "bool"
        },
        {
          "internalType": "bytes",
          "name": "",
          "type": "bytes"
        }
      ],
      "stateMutability": "nonpayable",
      "type": "function"
    },
    {
      "inputs": [],
      "name": "enterRaffle",
      "outputs": [],
      "stateMutability": "payable",
      "type": "function"
    },
    {
      "inputs": [],
      "name": "getLatestTimeStamp",
      "outputs": [
        {
          "internalType": "uint256",
          "name": "",
          "type": "uint256"
        }
      ],
      "stateMutability": "view",
      "type": "function"
    },
    {
      "inputs": [],
      "name": "getNumOfPlayers",
      "outputs": [
        {
          "internalType": "uint256",
          "name": "",
          "type": "uint256"
        }
      ],
      "stateMutability": "view",
      "type": "function"
    },
    {
      "inputs": [],
      "name": "getNumWords",
      "outputs": [
        {
          "internalType": "uint32",
          "name": "",
          "type": "uint32"
        }
      ],
      "stateMutability": "pure",
      "type": "function"
    },
    {
      "inputs": [
        {
          "internalType": "uint256",
          "name": "index",
          "type": "uint256"
        }
      ],
      "name": "getPlayer",
      "outputs": [
        {
          "internalType": "address",
          "name": "",
          "type": "address"
        }
      ],
      "stateMutability": "view",
      "type": "function"
    },
    {
      "inputs": [],
      "name": "getRaffleState",
      "outputs": [
        {
          "internalType": "enum Raffle.RaffleState",
          "name": "",
          "type": "uint8"
        }
      ],
      "stateMutability": "view",
      "type": "function"
    },
    {
      "inputs": [],
      "name": "getRecentWinner",
      "outputs": [
        {
          "internalType": "address",
          "name": "",
          "type": "address"
        }
      ],
      "stateMutability": "view",
      "type": "function"
    },
    {
      "inputs": [],
      "name": "getRequestConfirmations",
      "outputs": [
        {
          "internalType": "uint16",
          "name": "",
          "type": "uint16"
        }
      ],
      "stateMutability": "pure",
      "type": "function"
    },
    {
      "inputs": [],
      "name": "getenteranceFee",
      "outputs": [
        {
          "internalType": "uint256",
          "name": "",
          "type": "uint256"
        }
      ],
      "stateMutability": "view",
      "type": "function"
    },
    {
      "inputs": [
        {
          "internalType": "bytes",
          "name": "",
          "type": "bytes"
        }
      ],
      "name": "performUpkeep",
      "outputs": [],
      "stateMutability": "nonpayable",
      "type": "function"
    },
    {
      "inputs": [
        {
          "internalType": "uint256",
          "name": "requestId",
          "type": "uint256"
        },
        {
          "internalType": "uint256[]",
          "name": "randomWords",
          "type": "uint256[]"
        }
      ],
      "name": "rawFulfillRandomWords",
      "outputs": [],
      "stateMutability": "nonpayable",
      "type": "function"
    }
  ],
  "bytecode": "0x6101606040523480156200001257600080fd5b50604051620017b9380380620017b9833981810160405281019062000038919062000294565b858073ffffffffffffffffffffffffffffffffffffffff1660808173ffffffffffffffffffffffffffffffffffffffff1681525050508160a081815250508573ffffffffffffffffffffffffffffffffffffffff1660c08173ffffffffffffffffffffffffffffffffffffffff16815250508360e081815250508467ffffffffffffffff166101008167ffffffffffffffff16815250508063ffffffff166101208163ffffffff16815250506000600160146101000a81548160ff021916908360018111156200010d576200010c62000330565b5b0217905550426002819055508261014081815250505050505050506200035f565b600080fd5b600073ffffffffffffffffffffffffffffffffffffffff82169050919050565b6000620001608262000133565b9050919050565b620001728162000153565b81146200017e57600080fd5b50565b600081519050620001928162000167565b92915050565b600067ffffffffffffffff82169050919050565b620001b78162000198565b8114620001c357600080fd5b50565b600081519050620001d781620001ac565b92915050565b6000819050919050565b620001f281620001dd565b8114620001fe57600080fd5b50565b6000815190506200021281620001e7565b92915050565b6000819050919050565b6200022d8162000218565b81146200023957600080fd5b50565b6000815190506200024d8162000222565b92915050565b600063ffffffff82169050919050565b6200026e8162000253565b81146200027a57600080fd5b50565b6000815190506200028e8162000263565b92915050565b60008060008060008060c08789031215620002b457620002b36200012e565b5b6000620002c489828a0162000181565b9650506020620002d789828a01620001c6565b9550506040620002ea89828a0162000201565b9450506060620002fd89828a016200023c565b93505060806200031089828a016200023c565b92505060a06200032389828a016200027d565b9150509295509295509295565b7f4e487b7100000000000000000000000000000000000000000000000000000000600052602160045260246000fd5b60805160a05160c05160e0516101005161012051610140516113f1620003c8600039600061077a0152600061063701526000610614015260006105f3015260006105b701526000818161038901526107e90152600081816102c9015261031d01526113f16000f3fe6080604052600436106100a75760003560e01c806353a2c19a1161006457806353a2c19a14610189578063565429de146101b45780635f1b0fd8146101df5780636e04ff0d1461020a578063d91fe6eb14610248578063e55ae4e814610273576100a7565b8063115cbaf5146100ac5780631fe543e3146100d75780632cfcc53914610100578063320229eb1461010a5780634585e33b14610135578063473f1ddc1461015e575b600080fd5b3480156100b857600080fd5b506100c16102b0565b6040516100ce9190610ba3565b60405180910390f35b3480156100e357600080fd5b506100fe60048036038101906100f99190610d61565b6102c7565b005b610108610387565b005b34801561011657600080fd5b5061011f6104f6565b60405161012c9190610dcc565b60405180910390f35b34801561014157600080fd5b5061015c60048036038101906101579190610e42565b610500565b005b34801561016a57600080fd5b506101736106f0565b6040516101809190610ed0565b60405180910390f35b34801561019557600080fd5b5061019e61071a565b6040516101ab9190610f0a565b60405180910390f35b3480156101c057600080fd5b506101c9610723565b6040516101d69190610dcc565b60405180910390f35b3480156101eb57600080fd5b506101f461072f565b6040516102019190610f42565b60405180910390f35b34801561021657600080fd5b50610231600480360381019061022c9190611012565b610738565b60405161023f9291906110f5565b60405180910390f35b34801561025457600080fd5b5061025d6107e5565b60405161026a9190610dcc565b60405180910390f35b34801561027f57600080fd5b5061029a60048036038101906102959190611125565b61080d565b6040516102a79190610ed0565b60405180910390f35b6000600160149054906101000a900460ff16905090565b7f000000000000000000000000000000000000000000000000000000000000000073ffffffffffffffffffffffffffffffffffffffff163373ffffffffffffffffffffffffffffffffffffffff161461037957337f00000000000000000000000000000000000000000000000000000000000000006040517f1cf993f4000000000000000000000000000000000000000000000000000000008152600401610370929190611152565b60405180910390fd5b6103838282610854565b5050565b7f00000000000000000000000000000000000000000000000000000000000000003410156103e1576040517fbd4e069500000000000000000000000000000000000000000000000000000000815260040160405180910390fd5b600060018111156103f5576103f4610b2c565b5b600160149054906101000a900460ff16600181111561041757610416610b2c565b5b1461044e576040517f21025eb500000000000000000000000000000000000000000000000000000000815260040160405180910390fd5b6000339080600181540180825580915050600190039060005260206000200160009091909190916101000a81548173ffffffffffffffffffffffffffffffffffffffff021916908373ffffffffffffffffffffffffffffffffffffffff1602179055503373ffffffffffffffffffffffffffffffffffffffff167f0805e1d667bddb8a95f0f09880cf94f403fb596ce79928d9f29b74203ba284d460405160405180910390a2565b6000600254905090565b600061051a60405180602001604052806000815250610738565b509050806105895747600080549050600160149054906101000a900460ff16600181111561054b5761054a610b2c565b5b6040517f837325cd0000000000000000000000000000000000000000000000000000000081526004016105809392919061117b565b60405180910390fd5b60018060146101000a81548160ff021916908360018111156105ae576105ad610b2c565b5b021790555060007f000000000000000000000000000000000000000000000000000000000000000073ffffffffffffffffffffffffffffffffffffffff16635d3b1d307f00000000000000000000000000000000000000000000000000000000000000007f000000000000000000000000000000000000000000000000000000000000000060037f000000000000000000000000000000000000000000000000000000000000000060016040518663ffffffff1660e01b81526004016106789594939291906111ee565b6020604051808303816000875af1158015610697573d6000803e3d6000fd5b505050506040513d601f19601f820116820180604052508101906106bb9190611256565b9050807fcd6e45c8998311cab7e9d4385596cac867e20a0587194b954fa3a731c93ce78b60405160405180910390a250505050565b6000600160009054906101000a900473ffffffffffffffffffffffffffffffffffffffff16905090565b60006001905090565b60008080549050905090565b60006003905090565b60006060600080600181111561075157610750610b2c565b5b600160149054906101000a900460ff16600181111561077357610772610b2c565b5b14905060007f0000000000000000000000000000000000000000000000000000000000000000600254426107a791906112b2565b10159050600080600080549050119050600080471190508380156107c85750825b80156107d15750815b80156107da5750805b955050505050915091565b60007f0000000000000000000000000000000000000000000000000000000000000000905090565b6000808281548110610822576108216112e6565b5b9060005260206000200160009054906101000a900473ffffffffffffffffffffffffffffffffffffffff169050919050565b600080805490508260008151811061086f5761086e6112e6565b5b60200260200101516108819190611344565b90506000808281548110610898576108976112e6565b5b9060005260206000200160009054906101000a900473ffffffffffffffffffffffffffffffffffffffff16905080600160006101000a81548173ffffffffffffffffffffffffffffffffffffffff021916908373ffffffffffffffffffffffffffffffffffffffff1602179055506000600160146101000a81548160ff0219169083600181111561092c5761092b610b2c565b5b0217905550600067ffffffffffffffff81111561094c5761094b610c1e565b5b60405190808252806020026020018201604052801561097a5781602001602082028036833780820191505090505b5060009080519060200190610990929190610a85565b504260028190555060008173ffffffffffffffffffffffffffffffffffffffff16476040516109be906113a6565b60006040518083038185875af1925050503d80600081146109fb576040519150601f19603f3d011682016040523d82523d6000602084013e610a00565b606091505b5050905080610a3b576040517fa1d04b3900000000000000000000000000000000000000000000000000000000815260040160405180910390fd5b8173ffffffffffffffffffffffffffffffffffffffff167f5b690ec4a06fe979403046eaeea5b3ce38524683c3001f662c8b5a829632f7df60405160405180910390a25050505050565b828054828255906000526020600020908101928215610afe579160200282015b82811115610afd5782518260006101000a81548173ffffffffffffffffffffffffffffffffffffffff021916908373ffffffffffffffffffffffffffffffffffffffff16021790555091602001919060010190610aa5565b5b509050610b0b9190610b0f565b5090565b5b80821115610b28576000816000905550600101610b10565b5090565b7f4e487b7100000000000000000000000000000000000000000000000000000000600052602160045260246000fd5b60028110610b6c57610b6b610b2c565b5b50565b6000819050610b7d82610b5b565b919050565b6000610b8d82610b6f565b9050919050565b610b9d81610b82565b82525050565b6000602082019050610bb86000830184610b94565b92915050565b6000604051905090565b600080fd5b600080fd5b6000819050919050565b610be581610bd2565b8114610bf057600080fd5b50565b600081359050610c0281610bdc565b92915050565b600080fd5b6000601f19601f8301169050919050565b7f4e487b7100000000000000000000000000000000000000000000000000000000600052604160045260246000fd5b610c5682610c0d565b810181811067ffffffffffffffff82111715610c7557610c74610c1e565b5b80604052505050565b6000610c88610bbe565b9050610c948282610c4d565b919050565b600067ffffffffffffffff821115610cb457610cb3610c1e565b5b602082029050602081019050919050565b600080fd5b6000610cdd610cd884610c99565b610c7e565b90508083825260208201905060208402830185811115610d0057610cff610cc5565b5b835b81811015610d295780610d158882610bf3565b845260208401935050602081019050610d02565b5050509392505050565b600082601f830112610d4857610d47610c08565b5b8135610d58848260208601610cca565b91505092915050565b60008060408385031215610d7857610d77610bc8565b5b6000610d8685828601610bf3565b925050602083013567ffffffffffffffff811115610da757610da6610bcd565b5b610db385828601610d33565b9150509250929050565b610dc681610bd2565b82525050565b6000602082019050610de16000830184610dbd565b92915050565b600080fd5b60008083601f840112610e0257610e01610c08565b5b8235905067ffffffffffffffff811115610e1f57610e1e610de7565b5b602083019150836001820283011115610e3b57610e3a610cc5565b5b9250929050565b60008060208385031215610e5957610e58610bc8565b5b600083013567ffffffffffffffff811115610e7757610e76610bcd565b5b610e8385828601610dec565b92509250509250929050565b600073ffffffffffffffffffffffffffffffffffffffff82169050919050565b6000610eba82610e8f565b9050919050565b610eca81610eaf565b82525050565b6000602082019050610ee56000830184610ec1565b92915050565b600063ffffffff82169050919050565b610f0481610eeb565b82525050565b6000602082019050610f1f6000830184610efb565b92915050565b600061ffff82169050919050565b610f3c81610f25565b82525050565b6000602082019050610f576000830184610f33565b92915050565b600080fd5b600067ffffffffffffffff821115610f7d57610f7c610c1e565b5b610f8682610c0d565b9050602081019050919050565b82818337600083830152505050565b6000610fb5610fb084610f62565b610c7e565b905082815260208101848484011115610fd157610fd0610f5d565b5b610fdc848285610f93565b509392505050565b600082601f830112610ff957610ff8610c08565b5b8135611009848260208601610fa2565b91505092915050565b60006020828403121561102857611027610bc8565b5b600082013567ffffffffffffffff81111561104657611045610bcd565b5b61105284828501610fe4565b91505092915050565b60008115159050919050565b6110708161105b565b82525050565b600081519050919050565b600082825260208201905092915050565b60005b838110156110b0578082015181840152602081019050611095565b60008484015250505050565b60006110c782611076565b6110d18185611081565b93506110e1818560208601611092565b6110ea81610c0d565b840191505092915050565b600060408201905061110a6000830185611067565b818103602083015261111c81846110bc565b90509392505050565b60006020828403121561113b5761113a610bc8565b5b600061114984828501610bf3565b91505092915050565b60006040820190506111676000830185610ec1565b6111746020830184610ec1565b9392505050565b60006060820190506111906000830186610dbd565b61119d6020830185610dbd565b6111aa6040830184610dbd565b949350505050565b6000819050919050565b6111c5816111b2565b82525050565b600067ffffffffffffffff82169050919050565b6111e8816111cb565b82525050565b600060a08201905061120360008301886111bc565b61121060208301876111df565b61121d6040830186610f33565b61122a6060830185610efb565b6112376080830184610efb565b9695505050505050565b60008151905061125081610bdc565b92915050565b60006020828403121561126c5761126b610bc8565b5b600061127a84828501611241565b91505092915050565b7f4e487b7100000000000000000000000000000000000000000000000000000000600052601160045260246000fd5b60006112bd82610bd2565b91506112c883610bd2565b92508282039050818111156112e0576112df611283565b5b92915050565b7f4e487b7100000000000000000000000000000000000000000000000000000000600052603260045260246000fd5b7f4e487b7100000000000000000000000000000000000000000000000000000000600052601260045260246000fd5b600061134f82610bd2565b915061135a83610bd2565b92508261136a57611369611315565b5b828206905092915050565b600081905092915050565b50565b6000611390600083611375565b915061139b82611380565b600082019050919050565b60006113b182611383565b915081905091905056fea26469706673582212208fa533b45e4fe50fea709c683875b1bf1434e57444ef93154875f19f62747e9064736f6c63430008120033",
  "linkReferences": {},
  "deployedLinkReferences": {}
}